{
  "_format": "hh-sol-artifact-1",
  "contractName": "SpaceGame",
  "sourceName": "contracts/SpaceGame.sol",
  "abi": [
    {
      "inputs": [],
      "stateMutability": "nonpayable",
      "type": "constructor"
    },
    {
      "inputs": [],
      "name": "name",
      "outputs": [
        {
          "internalType": "string",
          "name": "",
          "type": "string"
        }
      ],
      "stateMutability": "view",
      "type": "function"
    },
    {
      "inputs": [],
      "name": "owner",
      "outputs": [
        {
          "internalType": "address",
          "name": "",
          "type": "address"
        }
      ],
      "stateMutability": "view",
      "type": "function"
    },
    {
      "inputs": [],
      "name": "symbol",
      "outputs": [
        {
          "internalType": "string",
          "name": "",
          "type": "string"
        }
      ],
      "stateMutability": "view",
      "type": "function"
    },
    {
      "inputs": [],
      "name": "totalSupply",
      "outputs": [
        {
          "internalType": "uint256",
          "name": "",
          "type": "uint256"
        }
      ],
      "stateMutability": "view",
      "type": "function"
    },
    {
      "inputs": [
        {
          "internalType": "address",
          "name": "to",
          "type": "address"
        },
        {
          "internalType": "uint256",
          "name": "amount",
          "type": "uint256"
        }
      ],
      "name": "transfer",
      "outputs": [],
      "stateMutability": "nonpayable",
      "type": "function"
    }
  ],
  "bytecode": "0x60c0604052601060808190526f26bc902430b9323430ba102a37b5b2b760811b60a09081526100319160009190610088565b506040805180820190915260038082526213521560ea1b602090920191825261005c91600191610088565b50620f424060025534801561007057600080fd5b50600380546001600160a01b0319163317905561015c565b82805461009490610121565b90600052602060002090601f0160209004810192826100b657600085556100fc565b82601f106100cf57805160ff19168380011785556100fc565b828001600101855582156100fc579182015b828111156100fc5782518255916020019190600101906100e1565b5061010892915061010c565b5090565b5b80821115610108576000815560010161010d565b600181811c9082168061013557607f821691505b6020821081141561015657634e487b7160e01b600052602260045260246000fd5b50919050565b6102718061016b6000396000f3fe608060405234801561001057600080fd5b50600436106100575760003560e01c806306fdde031461005c57806318160ddd1461007a5780638da5cb5b1461009157806395d89b41146100bc578063a9059cbb146100c4575b600080fd5b6100646100d8565b6040516100719190610173565b60405180910390f35b61008360025481565b604051908152602001610071565b6003546100a4906001600160a01b031681565b6040516001600160a01b039091168152602001610071565b610064610166565b6100d66100d23660046101c8565b5050565b005b600080546100e590610200565b80601f016020809104026020016040519081016040528092919081815260200182805461011190610200565b801561015e5780601f106101335761010080835404028352916020019161015e565b820191906000526020600020905b81548152906001019060200180831161014157829003601f168201915b505050505081565b600180546100e590610200565b600060208083528351808285015260005b818110156101a057858101830151858201604001528201610184565b818111156101b2576000604083870101525b50601f01601f1916929092016040019392505050565b600080604083850312156101db57600080fd5b82356001600160a01b03811681146101f257600080fd5b946020939093013593505050565b600181811c9082168061021457607f821691505b6020821081141561023557634e487b7160e01b600052602260045260246000fd5b5091905056fea26469706673582212201e17a2bdba52954813b72501e512bd320b78a148b2050ad5842cc777d5867f5a64736f6c634300080c0033",
  "linkReferences": {},
  "deployedLinkReferences": {}
}