{
  "_format": "hh-sol-artifact-1",
  "contractName": "SpaceRanger",
  "sourceName": "contracts/SpaceRanger.sol",
  "abi": [
    {
      "inputs": [],
      "stateMutability": "nonpayable",
      "type": "constructor"
    },
    {
      "anonymous": false,
      "inputs": [
        {
          "indexed": true,
          "internalType": "address",
          "name": "account",
          "type": "address"
        },
        {
          "indexed": true,
          "internalType": "address",
          "name": "operator",
          "type": "address"
        },
        {
          "indexed": false,
          "internalType": "bool",
          "name": "approved",
          "type": "bool"
        }
      ],
      "name": "ApprovalForAll",
      "type": "event"
    },
    {
      "anonymous": false,
      "inputs": [
        {
          "indexed": true,
          "internalType": "address",
          "name": "previousOwner",
          "type": "address"
        },
        {
          "indexed": true,
          "internalType": "address",
          "name": "newOwner",
          "type": "address"
        }
      ],
      "name": "OwnershipTransferred",
      "type": "event"
    },
    {
      "anonymous": false,
      "inputs": [
        {
          "indexed": true,
          "internalType": "address",
          "name": "operator",
          "type": "address"
        },
        {
          "indexed": true,
          "internalType": "address",
          "name": "from",
          "type": "address"
        },
        {
          "indexed": true,
          "internalType": "address",
          "name": "to",
          "type": "address"
        },
        {
          "indexed": false,
          "internalType": "uint256[]",
          "name": "ids",
          "type": "uint256[]"
        },
        {
          "indexed": false,
          "internalType": "uint256[]",
          "name": "values",
          "type": "uint256[]"
        }
      ],
      "name": "TransferBatch",
      "type": "event"
    },
    {
      "anonymous": false,
      "inputs": [
        {
          "indexed": true,
          "internalType": "address",
          "name": "operator",
          "type": "address"
        },
        {
          "indexed": true,
          "internalType": "address",
          "name": "from",
          "type": "address"
        },
        {
          "indexed": true,
          "internalType": "address",
          "name": "to",
          "type": "address"
        },
        {
          "indexed": false,
          "internalType": "uint256",
          "name": "id",
          "type": "uint256"
        },
        {
          "indexed": false,
          "internalType": "uint256",
          "name": "value",
          "type": "uint256"
        }
      ],
      "name": "TransferSingle",
      "type": "event"
    },
    {
      "anonymous": false,
      "inputs": [
        {
          "indexed": false,
          "internalType": "string",
          "name": "value",
          "type": "string"
        },
        {
          "indexed": true,
          "internalType": "uint256",
          "name": "id",
          "type": "uint256"
        }
      ],
      "name": "URI",
      "type": "event"
    },
    {
      "inputs": [],
      "name": "SHIPS_TYPE_SUPPLY",
      "outputs": [
        {
          "internalType": "uint256",
          "name": "",
          "type": "uint256"
        }
      ],
      "stateMutability": "view",
      "type": "function"
    },
    {
      "inputs": [
        {
          "internalType": "address",
          "name": "account",
          "type": "address"
        },
        {
          "internalType": "uint256",
          "name": "id",
          "type": "uint256"
        }
      ],
      "name": "balanceOf",
      "outputs": [
        {
          "internalType": "uint256",
          "name": "",
          "type": "uint256"
        }
      ],
      "stateMutability": "view",
      "type": "function"
    },
    {
      "inputs": [
        {
          "internalType": "address[]",
          "name": "accounts",
          "type": "address[]"
        },
        {
          "internalType": "uint256[]",
          "name": "ids",
          "type": "uint256[]"
        }
      ],
      "name": "balanceOfBatch",
      "outputs": [
        {
          "internalType": "uint256[]",
          "name": "",
          "type": "uint256[]"
        }
      ],
      "stateMutability": "view",
      "type": "function"
    },
    {
      "inputs": [
        {
          "internalType": "address",
          "name": "_owner",
          "type": "address"
        }
      ],
      "name": "getUserShips",
      "outputs": [
        {
          "components": [
            {
              "internalType": "uint256",
              "name": "id",
              "type": "uint256"
            },
            {
              "internalType": "uint8",
              "name": "health",
              "type": "uint8"
            },
            {
              "internalType": "uint8",
              "name": "attack",
              "type": "uint8"
            },
            {
              "internalType": "uint8",
              "name": "weapons",
              "type": "uint8"
            },
            {
              "internalType": "uint8",
              "name": "level",
              "type": "uint8"
            },
            {
              "internalType": "uint8",
              "name": "shipType",
              "type": "uint8"
            },
            {
              "internalType": "bool",
              "name": "onSale",
              "type": "bool"
            },
            {
              "internalType": "uint256",
              "name": "salePrice",
              "type": "uint256"
            }
          ],
          "internalType": "struct SpaceRanger.Ship[]",
          "name": "",
          "type": "tuple[]"
        }
      ],
      "stateMutability": "view",
      "type": "function"
    },
    {
      "inputs": [
        {
          "internalType": "address",
          "name": "account",
          "type": "address"
        },
        {
          "internalType": "address",
          "name": "operator",
          "type": "address"
        }
      ],
      "name": "isApprovedForAll",
      "outputs": [
        {
          "internalType": "bool",
          "name": "",
          "type": "bool"
        }
      ],
      "stateMutability": "view",
      "type": "function"
    },
    {
      "inputs": [
        {
          "internalType": "uint8",
          "name": "_shipTypeId",
          "type": "uint8"
        }
      ],
      "name": "mint",
      "outputs": [],
      "stateMutability": "nonpayable",
      "type": "function"
    },
    {
      "inputs": [
        {
          "internalType": "uint256",
          "name": "",
          "type": "uint256"
        }
      ],
      "name": "mintedShips",
      "outputs": [
        {
          "internalType": "uint16",
          "name": "",
          "type": "uint16"
        }
      ],
      "stateMutability": "view",
      "type": "function"
    },
    {
      "inputs": [],
      "name": "owner",
      "outputs": [
        {
          "internalType": "address",
          "name": "",
          "type": "address"
        }
      ],
      "stateMutability": "view",
      "type": "function"
    },
    {
      "inputs": [],
      "name": "renounceOwnership",
      "outputs": [],
      "stateMutability": "nonpayable",
      "type": "function"
    },
    {
      "inputs": [
        {
          "internalType": "address",
          "name": "from",
          "type": "address"
        },
        {
          "internalType": "address",
          "name": "to",
          "type": "address"
        },
        {
          "internalType": "uint256[]",
          "name": "ids",
          "type": "uint256[]"
        },
        {
          "internalType": "uint256[]",
          "name": "amounts",
          "type": "uint256[]"
        },
        {
          "internalType": "bytes",
          "name": "data",
          "type": "bytes"
        }
      ],
      "name": "safeBatchTransferFrom",
      "outputs": [],
      "stateMutability": "nonpayable",
      "type": "function"
    },
    {
      "inputs": [
        {
          "internalType": "address",
          "name": "from",
          "type": "address"
        },
        {
          "internalType": "address",
          "name": "to",
          "type": "address"
        },
        {
          "internalType": "uint256",
          "name": "id",
          "type": "uint256"
        },
        {
          "internalType": "uint256",
          "name": "amount",
          "type": "uint256"
        },
        {
          "internalType": "bytes",
          "name": "data",
          "type": "bytes"
        }
      ],
      "name": "safeTransferFrom",
      "outputs": [],
      "stateMutability": "nonpayable",
      "type": "function"
    },
    {
      "inputs": [
        {
          "internalType": "address",
          "name": "operator",
          "type": "address"
        },
        {
          "internalType": "bool",
          "name": "approved",
          "type": "bool"
        }
      ],
      "name": "setApprovalForAll",
      "outputs": [],
      "stateMutability": "nonpayable",
      "type": "function"
    },
    {
      "inputs": [
        {
          "internalType": "string",
          "name": "_uri",
          "type": "string"
        }
      ],
      "name": "setURI",
      "outputs": [],
      "stateMutability": "nonpayable",
      "type": "function"
    },
    {
      "inputs": [
        {
          "internalType": "bytes4",
          "name": "interfaceId",
          "type": "bytes4"
        }
      ],
      "name": "supportsInterface",
      "outputs": [
        {
          "internalType": "bool",
          "name": "",
          "type": "bool"
        }
      ],
      "stateMutability": "view",
      "type": "function"
    },
    {
      "inputs": [],
      "name": "totalMintedShips",
      "outputs": [
        {
          "internalType": "uint256",
          "name": "",
          "type": "uint256"
        }
      ],
      "stateMutability": "view",
      "type": "function"
    },
    {
      "inputs": [
        {
          "internalType": "address",
          "name": "newOwner",
          "type": "address"
        }
      ],
      "name": "transferOwnership",
      "outputs": [],
      "stateMutability": "nonpayable",
      "type": "function"
    },
    {
      "inputs": [
        {
          "internalType": "uint256",
          "name": "_tokenId",
          "type": "uint256"
        }
      ],
      "name": "uri",
      "outputs": [
        {
          "internalType": "string",
          "name": "",
          "type": "string"
        }
      ],
      "stateMutability": "pure",
      "type": "function"
    },
    {
      "inputs": [
        {
          "internalType": "address",
          "name": "",
          "type": "address"
        }
      ],
      "name": "userLevel",
      "outputs": [
        {
          "internalType": "uint256",
          "name": "",
          "type": "uint256"
        }
      ],
      "stateMutability": "view",
      "type": "function"
    },
    {
      "inputs": [
        {
          "internalType": "address",
          "name": "",
          "type": "address"
        }
      ],
      "name": "userScores",
      "outputs": [
        {
          "internalType": "uint256",
          "name": "",
          "type": "uint256"
        }
      ],
      "stateMutability": "view",
      "type": "function"
    },
    {
      "inputs": [
        {
          "internalType": "address",
          "name": "",
          "type": "address"
        },
        {
          "internalType": "uint256",
          "name": "",
          "type": "uint256"
        }
      ],
      "name": "userShips",
      "outputs": [
        {
          "internalType": "uint256",
          "name": "id",
          "type": "uint256"
        },
        {
          "internalType": "uint8",
          "name": "health",
          "type": "uint8"
        },
        {
          "internalType": "uint8",
          "name": "attack",
          "type": "uint8"
        },
        {
          "internalType": "uint8",
          "name": "weapons",
          "type": "uint8"
        },
        {
          "internalType": "uint8",
          "name": "level",
          "type": "uint8"
        },
        {
          "internalType": "uint8",
          "name": "shipType",
          "type": "uint8"
        },
        {
          "internalType": "bool",
          "name": "onSale",
          "type": "bool"
        },
        {
          "internalType": "uint256",
          "name": "salePrice",
          "type": "uint256"
        }
      ],
      "stateMutability": "view",
      "type": "function"
    }
  ],
  "bytecode": "0x6101206040526000608081815260a082905260c082905260e08290526101009190915262000032906004906005620000e8565b5060006005553480156200004557600080fd5b506040518060a0016040528060628152602001620023ff606291396200006b816200007d565b50620000773362000096565b62000268565b80516200009290600290602084019062000197565b5050565b600380546001600160a01b038381166001600160a01b0319831681179093556040519116919082907f8be0079c531659141344cd1fd0a4f28419497f9722a3daafe3b4186f6b6457e090600090a35050565b82805482825590600052602060002090600f01601090048101928215620001855791602002820160005b838211156200015357835183826101000a81548161ffff021916908360ff160217905550926020019260020160208160010104928301926001030262000112565b8015620001835782816101000a81549061ffff021916905560020160208160010104928301926001030262000153565b505b506200019392915062000214565b5090565b828054620001a5906200022b565b90600052602060002090601f016020900481019282620001c9576000855562000185565b82601f10620001e457805160ff191683800117855562000185565b8280016001018555821562000185579182015b8281111562000185578251825591602001919060010190620001f7565b5b8082111562000193576000815560010162000215565b600181811c908216806200024057607f821691505b602082108114156200026257634e487b7160e01b600052602260045260246000fd5b50919050565b61218780620002786000396000f3fe608060405234801561001057600080fd5b506004361061012b5760003560e01c80636ecd2306116100ad578063b062d9b511610071578063b062d9b5146102b9578063baf45424146102c2578063e985e9c51461031e578063f242432a1461035a578063f2fde38b1461036d57600080fd5b80636ecd23061461024a578063715018a61461025d57806378655c09146102655780638da5cb5b1461028b578063a22cb465146102a657600080fd5b806317cb4935116100f457806317cb4935146101ce578063280e31cc146101ee5780632eb2c2d61461020e5780633779a025146102215780634e1273f41461022a57600080fd5b8062fdd58e1461013057806301ffc9a71461015657806302fe5305146101795780630e89341c1461018e5780631413d4c0146101ae575b600080fd5b61014361013e3660046116ce565b610380565b6040519081526020015b60405180910390f35b61016961016436600461170e565b610416565b604051901515815260200161014d565b61018c6101873660046117d3565b610468565b005b6101a161019c36600461181c565b61047c565b60405161014d9190611891565b6101436101bc3660046118a4565b60066020526000908152604090205481565b6101e16101dc3660046118a4565b6104ad565b60405161014d91906118bf565b6101436101fc3660046118a4565b60076020526000908152604090205481565b61018c61021c366004611a11565b61065f565b6101436103e881565b61023d610238366004611abb565b6106ab565b60405161014d9190611bc1565b61018c610258366004611bd4565b6107d5565b61018c610b1b565b61027861027336600461181c565b610b2f565b60405161ffff909116815260200161014d565b6003546040516001600160a01b03909116815260200161014d565b61018c6102b4366004611bf7565b610b67565b61014360055481565b6102d56102d03660046116ce565b610b76565b6040805198895260ff97881660208a0152958716958801959095529285166060870152908416608086015290921660a084015290151560c083015260e08201526101000161014d565b61016961032c366004611c33565b6001600160a01b03918216600090815260016020908152604080832093909416825291909152205460ff1690565b61018c610368366004611c66565b610bed565b61018c61037b3660046118a4565b610c32565b60006001600160a01b0383166103f05760405162461bcd60e51b815260206004820152602a60248201527f455243313135353a2061646472657373207a65726f206973206e6f742061207660448201526930b634b21037bbb732b960b11b60648201526084015b60405180910390fd5b506000908152602081815260408083206001600160a01b03949094168352929052205490565b60006001600160e01b03198216636cdb3d1360e11b148061044757506001600160e01b031982166303a24d0760e21b145b8061046257506301ffc9a760e01b6001600160e01b03198316145b92915050565b610470610ca8565b61047981610d02565b50565b606061048782610d15565b6040516020016104979190611ccb565b6040516020818303038152906040529050919050565b6001600160a01b0381166000908152600860205260408120546060919067ffffffffffffffff8111156104e2576104e2611732565b60405190808252806020026020018201604052801561055157816020015b604080516101008101825260008082526020808301829052928201819052606082018190526080820181905260a0820181905260c0820181905260e082015282526000199092019101816105005790505b50905060005b6001600160a01b038416600090815260086020526040902054811015610658576001600160a01b03841660009081526008602052604090208054829081106105a1576105a1611d5f565b6000918252602091829020604080516101008082018352600390940290920180548352600181015460ff808216968501969096529384048516918301919091526201000083048416606083015263010000008304841660808301526401000000008304841660a083015265010000000000909204909216151560c08301526002015460e0820152825183908390811061063c5761063c611d5f565b60200260200101819052508061065190611d8b565b9050610557565b5092915050565b6001600160a01b03851633148061067b575061067b853361032c565b6106975760405162461bcd60e51b81526004016103e790611da6565b6106a48585858585610e1b565b5050505050565b606081518351146107105760405162461bcd60e51b815260206004820152602960248201527f455243313135353a206163636f756e747320616e6420696473206c656e677468604482015268040dad2e6dac2e8c6d60bb1b60648201526084016103e7565b6000835167ffffffffffffffff81111561072c5761072c611732565b604051908082528060200260200182016040528015610755578160200160208202803683370190505b50905060005b84518110156107cd576107a085828151811061077957610779611d5f565b602002602001015185838151811061079357610793611d5f565b6020026020010151610380565b8282815181106107b2576107b2611d5f565b60209081029190910101526107c681611d8b565b905061075b565b509392505050565b60045460ff8216106108295760405162461bcd60e51b815260206004820152601860248201527f53706163655368697020646f65736e277420657869737473000000000000000060448201526064016103e7565b60008160ff16116108715760405162461bcd60e51b815260206004820152601260248201527115dc9bdb99c814dc1858d954da1a5c08125160721b60448201526064016103e7565b33600090815260086020526040902054156108ce5760405162461bcd60e51b815260206004820152601a60248201527f596f7520616c726561647920686176652053706163655368697000000000000060448201526064016103e7565b60006108db600183611df5565b90506103e860048260ff16815481106108f6576108f6611d5f565b60009182526020909120601082040154600f9091166002026101000a900461ffff16106109805760405162461bcd60e51b815260206004820152603260248201527f4e6f206d6f7265207368697073206f662074686973206d6f646966696361746960448201527137b71034b71037bab91039ba30ba34b7b71760711b60648201526084016103e7565b600060056000815461099190611d8b565b91905081905590506109b53382600160405180602001604052806000815250611006565b600160048360ff16815481106109cd576109cd611d5f565b90600052602060002090601091828204019190066002028282829054906101000a900461ffff166109fe9190611e18565b825461ffff91821661010093840a908102920219161790915560408051808301825293845260196020808601918252600a8684019081526001606088018181526080890182815260ff9b8c1660a08b01908152600060c08c0181815260e08d018281523383526008895299822080548088018255908352979091209b516003909702909b019586559551928501805494519251915196519a511515650100000000000265ff0000000000199b8e16640100000000029b909b1665ffff0000000019978e1663010000000263ff00000019938f1662010000029390931663ffff000019948f16909a0261ffff1990961694909d1693909317939093171695909517179190911696909617939093179055505160029092019190915550565b610b23610ca8565b610b2d6000611129565b565b60048181548110610b3f57600080fd5b9060005260206000209060109182820401919006600202915054906101000a900461ffff1681565b610b7233838361117b565b5050565b60086020528160005260406000208181548110610b9257600080fd5b600091825260209091206003909102018054600182015460029092015490935060ff80831693506101008304811692620100008104821692630100000082048316926401000000008304811692650100000000009004169088565b6001600160a01b038516331480610c095750610c09853361032c565b610c255760405162461bcd60e51b81526004016103e790611da6565b6106a4858585858561125c565b610c3a610ca8565b6001600160a01b038116610c9f5760405162461bcd60e51b815260206004820152602660248201527f4f776e61626c653a206e6577206f776e657220697320746865207a65726f206160448201526564647265737360d01b60648201526084016103e7565b61047981611129565b6003546001600160a01b03163314610b2d5760405162461bcd60e51b815260206004820181905260248201527f4f776e61626c653a2063616c6c6572206973206e6f7420746865206f776e657260448201526064016103e7565b8051610b72906002906020840190611619565b606081610d395750506040805180820190915260018152600360fc1b602082015290565b8160005b8115610d635780610d4d81611d8b565b9150610d5c9050600a83611e54565b9150610d3d565b60008167ffffffffffffffff811115610d7e57610d7e611732565b6040519080825280601f01601f191660200182016040528015610da8576020820181803683370190505b5090505b8415610e1357610dbd600183611e68565b9150610dca600a86611e7f565b610dd5906030611e93565b60f81b818381518110610dea57610dea611d5f565b60200101906001600160f81b031916908160001a905350610e0c600a86611e54565b9450610dac565b949350505050565b8151835114610e7d5760405162461bcd60e51b815260206004820152602860248201527f455243313135353a2069647320616e6420616d6f756e7473206c656e677468206044820152670dad2e6dac2e8c6d60c31b60648201526084016103e7565b6001600160a01b038416610ea35760405162461bcd60e51b81526004016103e790611eab565b33610eb2818787878787611394565b60005b8451811015610f98576000858281518110610ed257610ed2611d5f565b602002602001015190506000858381518110610ef057610ef0611d5f565b602090810291909101810151600084815280835260408082206001600160a01b038e168352909352919091205490915081811015610f405760405162461bcd60e51b81526004016103e790611ef0565b6000838152602081815260408083206001600160a01b038e8116855292528083208585039055908b16825281208054849290610f7d908490611e93565b9250508190555050505080610f9190611d8b565b9050610eb5565b50846001600160a01b0316866001600160a01b0316826001600160a01b03167f4a39dc06d4c0dbc64b70af90fd698a233a518aa5d07e595d983b8c0526c8f7fb8787604051610fe8929190611f3a565b60405180910390a4610ffe818787878787611399565b505050505050565b6001600160a01b0384166110665760405162461bcd60e51b815260206004820152602160248201527f455243313135353a206d696e7420746f20746865207a65726f206164647265736044820152607360f81b60648201526084016103e7565b33600061107285611504565b9050600061107f85611504565b905061109083600089858589611394565b6000868152602081815260408083206001600160a01b038b168452909152812080548792906110c0908490611e93565b909155505060408051878152602081018790526001600160a01b03808a1692600092918716917fc3d58168c5ae7397731d063d5bbf3d657854427343f4c083240f7aacaa2d0f62910160405180910390a46111208360008989898961154f565b50505050505050565b600380546001600160a01b038381166001600160a01b0319831681179093556040519116919082907f8be0079c531659141344cd1fd0a4f28419497f9722a3daafe3b4186f6b6457e090600090a35050565b816001600160a01b0316836001600160a01b031614156111ef5760405162461bcd60e51b815260206004820152602960248201527f455243313135353a2073657474696e6720617070726f76616c20737461747573604482015268103337b91039b2b63360b91b60648201526084016103e7565b6001600160a01b03838116600081815260016020908152604080832094871680845294825291829020805460ff191686151590811790915591519182527f17307eab39ab6107e8899845ad3d59bd9653f200f220920489ca2b5937696c31910160405180910390a3505050565b6001600160a01b0384166112825760405162461bcd60e51b81526004016103e790611eab565b33600061128e85611504565b9050600061129b85611504565b90506112ab838989858589611394565b6000868152602081815260408083206001600160a01b038c168452909152902054858110156112ec5760405162461bcd60e51b81526004016103e790611ef0565b6000878152602081815260408083206001600160a01b038d8116855292528083208985039055908a16825281208054889290611329908490611e93565b909155505060408051888152602081018890526001600160a01b03808b16928c821692918816917fc3d58168c5ae7397731d063d5bbf3d657854427343f4c083240f7aacaa2d0f62910160405180910390a4611389848a8a8a8a8a61154f565b505050505050505050565b610ffe565b6001600160a01b0384163b15610ffe5760405163bc197c8160e01b81526001600160a01b0385169063bc197c81906113dd9089908990889088908890600401611f68565b602060405180830381600087803b1580156113f757600080fd5b505af1925050508015611427575060408051601f3d908101601f1916820190925261142491810190611fc6565b60015b6114d457611433611fe3565b806308c379a0141561146d5750611448611fff565b80611453575061146f565b8060405162461bcd60e51b81526004016103e79190611891565b505b60405162461bcd60e51b815260206004820152603460248201527f455243313135353a207472616e7366657220746f206e6f6e20455243313135356044820152732932b1b2b4bb32b91034b6b83632b6b2b73a32b960611b60648201526084016103e7565b6001600160e01b0319811663bc197c8160e01b146111205760405162461bcd60e51b81526004016103e790612089565b6040805160018082528183019092526060916000919060208083019080368337019050509050828160008151811061153e5761153e611d5f565b602090810291909101015292915050565b6001600160a01b0384163b15610ffe5760405163f23a6e6160e01b81526001600160a01b0385169063f23a6e619061159390899089908890889088906004016120d1565b602060405180830381600087803b1580156115ad57600080fd5b505af19250505080156115dd575060408051601f3d908101601f191682019092526115da91810190611fc6565b60015b6115e957611433611fe3565b6001600160e01b0319811663f23a6e6160e01b146111205760405162461bcd60e51b81526004016103e790612089565b82805461162590612116565b90600052602060002090601f016020900481019282611647576000855561168d565b82601f1061166057805160ff191683800117855561168d565b8280016001018555821561168d579182015b8281111561168d578251825591602001919060010190611672565b5061169992915061169d565b5090565b5b80821115611699576000815560010161169e565b80356001600160a01b03811681146116c957600080fd5b919050565b600080604083850312156116e157600080fd5b6116ea836116b2565b946020939093013593505050565b6001600160e01b03198116811461047957600080fd5b60006020828403121561172057600080fd5b813561172b816116f8565b9392505050565b634e487b7160e01b600052604160045260246000fd5b601f8201601f1916810167ffffffffffffffff8111828210171561176e5761176e611732565b6040525050565b600067ffffffffffffffff83111561178f5761178f611732565b6040516117a6601f8501601f191660200182611748565b8091508381528484840111156117bb57600080fd5b83836020830137600060208583010152509392505050565b6000602082840312156117e557600080fd5b813567ffffffffffffffff8111156117fc57600080fd5b8201601f8101841361180d57600080fd5b610e1384823560208401611775565b60006020828403121561182e57600080fd5b5035919050565b60005b83811015611850578181015183820152602001611838565b8381111561185f576000848401525b50505050565b6000815180845261187d816020860160208601611835565b601f01601f19169290920160200192915050565b60208152600061172b6020830184611865565b6000602082840312156118b657600080fd5b61172b826116b2565b602080825282518282018190526000919060409081850190868401855b8281101561194f578151805185528681015160ff908116888701528682015181168787015260608083015182169087015260808083015182169087015260a0808301519091169086015260c08082015115159086015260e0908101519085015261010090930192908501906001016118dc565b5091979650505050505050565b600067ffffffffffffffff82111561197657611976611732565b5060051b60200190565b600082601f83011261199157600080fd5b8135602061199e8261195c565b6040516119ab8282611748565b83815260059390931b85018201928281019150868411156119cb57600080fd5b8286015b848110156119e657803583529183019183016119cf565b509695505050505050565b600082601f830112611a0257600080fd5b61172b83833560208501611775565b600080600080600060a08688031215611a2957600080fd5b611a32866116b2565b9450611a40602087016116b2565b9350604086013567ffffffffffffffff80821115611a5d57600080fd5b611a6989838a01611980565b94506060880135915080821115611a7f57600080fd5b611a8b89838a01611980565b93506080880135915080821115611aa157600080fd5b50611aae888289016119f1565b9150509295509295909350565b60008060408385031215611ace57600080fd5b823567ffffffffffffffff80821115611ae657600080fd5b818501915085601f830112611afa57600080fd5b81356020611b078261195c565b604051611b148282611748565b83815260059390931b8501820192828101915089841115611b3457600080fd5b948201945b83861015611b5957611b4a866116b2565b82529482019490820190611b39565b96505086013592505080821115611b6f57600080fd5b50611b7c85828601611980565b9150509250929050565b600081518084526020808501945080840160005b83811015611bb657815187529582019590820190600101611b9a565b509495945050505050565b60208152600061172b6020830184611b86565b600060208284031215611be657600080fd5b813560ff8116811461172b57600080fd5b60008060408385031215611c0a57600080fd5b611c13836116b2565b915060208301358015158114611c2857600080fd5b809150509250929050565b60008060408385031215611c4657600080fd5b611c4f836116b2565b9150611c5d602084016116b2565b90509250929050565b600080600080600060a08688031215611c7e57600080fd5b611c87866116b2565b9450611c95602087016116b2565b93506040860135925060608601359150608086013567ffffffffffffffff811115611cbf57600080fd5b611aae888289016119f1565b7f68747470733a2f2f697066732e696f2f697066732f626166796265696570743781527f646e717a343735356278346b67357a7136646636637169337535626661646a73602082015270723332776e78337a37696a3265336e6d2f60781b604082015260008251611d43816051850160208701611835565b64173539b7b760d91b6051939091019283015250605601919050565b634e487b7160e01b600052603260045260246000fd5b634e487b7160e01b600052601160045260246000fd5b6000600019821415611d9f57611d9f611d75565b5060010190565b6020808252602f908201527f455243313135353a2063616c6c6572206973206e6f7420746f6b656e206f776e60408201526e195c881b9bdc88185c1c1c9bdd9959608a1b606082015260800190565b600060ff821660ff841680821015611e0f57611e0f611d75565b90039392505050565b600061ffff808316818516808303821115611e3557611e35611d75565b01949350505050565b634e487b7160e01b600052601260045260246000fd5b600082611e6357611e63611e3e565b500490565b600082821015611e7a57611e7a611d75565b500390565b600082611e8e57611e8e611e3e565b500690565b60008219821115611ea657611ea6611d75565b500190565b60208082526025908201527f455243313135353a207472616e7366657220746f20746865207a65726f206164604082015264647265737360d81b606082015260800190565b6020808252602a908201527f455243313135353a20696e73756666696369656e742062616c616e636520666f60408201526939103a3930b739b332b960b11b606082015260800190565b604081526000611f4d6040830185611b86565b8281036020840152611f5f8185611b86565b95945050505050565b6001600160a01b0386811682528516602082015260a060408201819052600090611f9490830186611b86565b8281036060840152611fa68186611b86565b90508281036080840152611fba8185611865565b98975050505050505050565b600060208284031215611fd857600080fd5b815161172b816116f8565b600060033d1115611ffc5760046000803e5060005160e01c5b90565b600060443d101561200d5790565b6040516003193d81016004833e81513d67ffffffffffffffff816024840111818411171561203d57505050505090565b82850191508151818111156120555750505050505090565b843d870101602082850101111561206f5750505050505090565b61207e60208286010187611748565b509095945050505050565b60208082526028908201527f455243313135353a204552433131353552656365697665722072656a656374656040820152676420746f6b656e7360c01b606082015260800190565b6001600160a01b03868116825285166020820152604081018490526060810183905260a06080820181905260009061210b90830184611865565b979650505050505050565b600181811c9082168061212a57607f821691505b6020821081141561214b57634e487b7160e01b600052602260045260246000fd5b5091905056fea2646970667358221220c56412f47d61f8032b096294f45eb93cfa0784bc6ff99fce1855cb88ed420f1664736f6c6343000809003368747470733a2f2f6261667962656965707437646e717a343735356278346b67357a7136646636637169337535626661646a73723332776e78337a37696a3265336e6d2e697066732e6e667473746f726167652e6c696e6b2f7b69647d2e6a736f6e",
  "linkReferences": {},
  "deployedLinkReferences": {}
}