{
  "_format": "hh-sol-artifact-1",
  "contractName": "SpaceRanger",
  "sourceName": "contracts/SpaceRanger.sol",
  "abi": [
    {
      "inputs": [
        {
          "internalType": "string",
          "name": "_shipHashIPFS",
          "type": "string"
        }
      ],
      "stateMutability": "nonpayable",
      "type": "constructor"
    },
    {
      "anonymous": false,
      "inputs": [
        {
          "indexed": true,
          "internalType": "address",
          "name": "owner",
          "type": "address"
        },
        {
          "indexed": true,
          "internalType": "address",
          "name": "approved",
          "type": "address"
        },
        {
          "indexed": true,
          "internalType": "uint256",
          "name": "tokenId",
          "type": "uint256"
        }
      ],
      "name": "Approval",
      "type": "event"
    },
    {
      "anonymous": false,
      "inputs": [
        {
          "indexed": true,
          "internalType": "address",
          "name": "owner",
          "type": "address"
        },
        {
          "indexed": true,
          "internalType": "address",
          "name": "operator",
          "type": "address"
        },
        {
          "indexed": false,
          "internalType": "bool",
          "name": "approved",
          "type": "bool"
        }
      ],
      "name": "ApprovalForAll",
      "type": "event"
    },
    {
      "anonymous": false,
      "inputs": [
        {
          "indexed": true,
          "internalType": "address",
          "name": "previousOwner",
          "type": "address"
        },
        {
          "indexed": true,
          "internalType": "address",
          "name": "newOwner",
          "type": "address"
        }
      ],
      "name": "OwnershipTransferred",
      "type": "event"
    },
    {
      "anonymous": false,
      "inputs": [
        {
          "indexed": true,
          "internalType": "address",
          "name": "from",
          "type": "address"
        },
        {
          "indexed": true,
          "internalType": "address",
          "name": "to",
          "type": "address"
        },
        {
          "indexed": true,
          "internalType": "uint256",
          "name": "tokenId",
          "type": "uint256"
        }
      ],
      "name": "Transfer",
      "type": "event"
    },
    {
      "inputs": [
        {
          "internalType": "address",
          "name": "to",
          "type": "address"
        },
        {
          "internalType": "uint256",
          "name": "tokenId",
          "type": "uint256"
        }
      ],
      "name": "approve",
      "outputs": [],
      "stateMutability": "nonpayable",
      "type": "function"
    },
    {
      "inputs": [
        {
          "internalType": "address",
          "name": "owner",
          "type": "address"
        }
      ],
      "name": "balanceOf",
      "outputs": [
        {
          "internalType": "uint256",
          "name": "",
          "type": "uint256"
        }
      ],
      "stateMutability": "view",
      "type": "function"
    },
    {
      "inputs": [
        {
          "internalType": "uint256",
          "name": "tokenId",
          "type": "uint256"
        }
      ],
      "name": "getApproved",
      "outputs": [
        {
          "internalType": "address",
          "name": "",
          "type": "address"
        }
      ],
      "stateMutability": "view",
      "type": "function"
    },
    {
      "inputs": [
        {
          "internalType": "address",
          "name": "owner",
          "type": "address"
        },
        {
          "internalType": "address",
          "name": "operator",
          "type": "address"
        }
      ],
      "name": "isApprovedForAll",
      "outputs": [
        {
          "internalType": "bool",
          "name": "",
          "type": "bool"
        }
      ],
      "stateMutability": "view",
      "type": "function"
    },
    {
      "inputs": [],
      "name": "name",
      "outputs": [
        {
          "internalType": "string",
          "name": "",
          "type": "string"
        }
      ],
      "stateMutability": "view",
      "type": "function"
    },
    {
      "inputs": [],
      "name": "owner",
      "outputs": [
        {
          "internalType": "address",
          "name": "",
          "type": "address"
        }
      ],
      "stateMutability": "view",
      "type": "function"
    },
    {
      "inputs": [
        {
          "internalType": "uint256",
          "name": "tokenId",
          "type": "uint256"
        }
      ],
      "name": "ownerOf",
      "outputs": [
        {
          "internalType": "address",
          "name": "",
          "type": "address"
        }
      ],
      "stateMutability": "view",
      "type": "function"
    },
    {
      "inputs": [],
      "name": "renounceOwnership",
      "outputs": [],
      "stateMutability": "nonpayable",
      "type": "function"
    },
    {
      "inputs": [
        {
          "internalType": "address",
          "name": "_account",
          "type": "address"
        }
      ],
      "name": "safeMint",
      "outputs": [],
      "stateMutability": "nonpayable",
      "type": "function"
    },
    {
      "inputs": [
        {
          "internalType": "address",
          "name": "from",
          "type": "address"
        },
        {
          "internalType": "address",
          "name": "to",
          "type": "address"
        },
        {
          "internalType": "uint256",
          "name": "tokenId",
          "type": "uint256"
        }
      ],
      "name": "safeTransferFrom",
      "outputs": [],
      "stateMutability": "nonpayable",
      "type": "function"
    },
    {
      "inputs": [
        {
          "internalType": "address",
          "name": "from",
          "type": "address"
        },
        {
          "internalType": "address",
          "name": "to",
          "type": "address"
        },
        {
          "internalType": "uint256",
          "name": "tokenId",
          "type": "uint256"
        },
        {
          "internalType": "bytes",
          "name": "data",
          "type": "bytes"
        }
      ],
      "name": "safeTransferFrom",
      "outputs": [],
      "stateMutability": "nonpayable",
      "type": "function"
    },
    {
      "inputs": [
        {
          "internalType": "address",
          "name": "operator",
          "type": "address"
        },
        {
          "internalType": "bool",
          "name": "approved",
          "type": "bool"
        }
      ],
      "name": "setApprovalForAll",
      "outputs": [],
      "stateMutability": "nonpayable",
      "type": "function"
    },
    {
      "inputs": [
        {
          "internalType": "bytes4",
          "name": "interfaceId",
          "type": "bytes4"
        }
      ],
      "name": "supportsInterface",
      "outputs": [
        {
          "internalType": "bool",
          "name": "",
          "type": "bool"
        }
      ],
      "stateMutability": "view",
      "type": "function"
    },
    {
      "inputs": [],
      "name": "symbol",
      "outputs": [
        {
          "internalType": "string",
          "name": "",
          "type": "string"
        }
      ],
      "stateMutability": "view",
      "type": "function"
    },
    {
      "inputs": [
        {
          "internalType": "uint256",
          "name": "index",
          "type": "uint256"
        }
      ],
      "name": "tokenByIndex",
      "outputs": [
        {
          "internalType": "uint256",
          "name": "",
          "type": "uint256"
        }
      ],
      "stateMutability": "view",
      "type": "function"
    },
    {
      "inputs": [
        {
          "internalType": "address",
          "name": "owner",
          "type": "address"
        },
        {
          "internalType": "uint256",
          "name": "index",
          "type": "uint256"
        }
      ],
      "name": "tokenOfOwnerByIndex",
      "outputs": [
        {
          "internalType": "uint256",
          "name": "",
          "type": "uint256"
        }
      ],
      "stateMutability": "view",
      "type": "function"
    },
    {
      "inputs": [
        {
          "internalType": "uint256",
          "name": "tokenId",
          "type": "uint256"
        }
      ],
      "name": "tokenURI",
      "outputs": [
        {
          "internalType": "string",
          "name": "",
          "type": "string"
        }
      ],
      "stateMutability": "view",
      "type": "function"
    },
    {
      "inputs": [],
      "name": "totalSupply",
      "outputs": [
        {
          "internalType": "uint256",
          "name": "",
          "type": "uint256"
        }
      ],
      "stateMutability": "view",
      "type": "function"
    },
    {
      "inputs": [
        {
          "internalType": "address",
          "name": "from",
          "type": "address"
        },
        {
          "internalType": "address",
          "name": "to",
          "type": "address"
        },
        {
          "internalType": "uint256",
          "name": "tokenId",
          "type": "uint256"
        }
      ],
      "name": "transferFrom",
      "outputs": [],
      "stateMutability": "nonpayable",
      "type": "function"
    },
    {
      "inputs": [
        {
          "internalType": "address",
          "name": "newOwner",
          "type": "address"
        }
      ],
      "name": "transferOwnership",
      "outputs": [],
      "stateMutability": "nonpayable",
      "type": "function"
    }
  ],
  "bytecode": "0x60806040523480156200001157600080fd5b50604051620022b5380380620022b58339810160408190526200003491620001e4565b604080518082018252600b81526a29b830b1b2a930b733b2b960a91b60208083019182528351808501909452600384526229a82960e91b908401528151919291620000829160009162000128565b5080516200009890600190602084019062000128565b505050620000b5620000af620000d260201b60201c565b620000d6565b8051620000ca90600d90602084019062000128565b5050620002fd565b3390565b600b80546001600160a01b038381166001600160a01b0319831681179093556040519116919082907f8be0079c531659141344cd1fd0a4f28419497f9722a3daafe3b4186f6b6457e090600090a35050565b8280546200013690620002c0565b90600052602060002090601f0160209004810192826200015a5760008555620001a5565b82601f106200017557805160ff1916838001178555620001a5565b82800160010185558215620001a5579182015b82811115620001a557825182559160200191906001019062000188565b50620001b3929150620001b7565b5090565b5b80821115620001b35760008155600101620001b8565b634e487b7160e01b600052604160045260246000fd5b60006020808385031215620001f857600080fd5b82516001600160401b03808211156200021057600080fd5b818501915085601f8301126200022557600080fd5b8151818111156200023a576200023a620001ce565b604051601f8201601f19908116603f01168101908382118183101715620002655762000265620001ce565b8160405282815288868487010111156200027e57600080fd5b600093505b82841015620002a2578484018601518185018701529285019262000283565b82841115620002b45760008684830101525b98975050505050505050565b600181811c90821680620002d557607f821691505b60208210811415620002f757634e487b7160e01b600052602260045260246000fd5b50919050565b611fa8806200030d6000396000f3fe608060405234801561001057600080fd5b506004361061012c5760003560e01c80636352211e116100ad578063a22cb46511610071578063a22cb46514610266578063b88d4fde14610279578063c87b56dd1461028c578063e985e9c51461029f578063f2fde38b146102db57600080fd5b80636352211e1461021f57806370a0823114610232578063715018a6146102455780638da5cb5b1461024d57806395d89b411461025e57600080fd5b806323b872dd116100f457806323b872dd146101c05780632f745c59146101d357806340d097c3146101e657806342842e0e146101f95780634f6ccce71461020c57600080fd5b806301ffc9a71461013157806306fdde0314610159578063081812fc1461016e578063095ea7b31461019957806318160ddd146101ae575b600080fd5b61014461013f3660046119bd565b6102ee565b60405190151581526020015b60405180910390f35b6101616102ff565b6040516101509190611a32565b61018161017c366004611a45565b610391565b6040516001600160a01b039091168152602001610150565b6101ac6101a7366004611a7a565b6103b8565b005b6008545b604051908152602001610150565b6101ac6101ce366004611aa4565b6104d3565b6101b26101e1366004611a7a565b610504565b6101ac6101f4366004611ae0565b61059a565b6101ac610207366004611aa4565b610813565b6101b261021a366004611a45565b61082e565b61018161022d366004611a45565b6108c1565b6101b2610240366004611ae0565b610921565b6101ac6109a7565b600b546001600160a01b0316610181565b6101616109bb565b6101ac610274366004611afb565b6109ca565b6101ac610287366004611b4d565b6109d9565b61016161029a366004611a45565b610a11565b6101446102ad366004611c29565b6001600160a01b03918216600090815260056020908152604080832093909416825291909152205460ff1690565b6101ac6102e9366004611ae0565b610a1c565b60006102f982610a95565b92915050565b60606000805461030e90611c5c565b80601f016020809104026020016040519081016040528092919081815260200182805461033a90611c5c565b80156103875780601f1061035c57610100808354040283529160200191610387565b820191906000526020600020905b81548152906001019060200180831161036a57829003601f168201915b5050505050905090565b600061039c82610aba565b506000908152600460205260409020546001600160a01b031690565b60006103c3826108c1565b9050806001600160a01b0316836001600160a01b031614156104365760405162461bcd60e51b815260206004820152602160248201527f4552433732313a20617070726f76616c20746f2063757272656e74206f776e656044820152603960f91b60648201526084015b60405180910390fd5b336001600160a01b0382161480610452575061045281336102ad565b6104c45760405162461bcd60e51b815260206004820152603e60248201527f4552433732313a20617070726f76652063616c6c6572206973206e6f7420746f60448201527f6b656e206f776e6572206e6f7220617070726f76656420666f7220616c6c0000606482015260840161042d565b6104ce8383610b19565b505050565b6104dd3382610b87565b6104f95760405162461bcd60e51b815260040161042d90611c97565b6104ce838383610c06565b600061050f83610921565b82106105715760405162461bcd60e51b815260206004820152602b60248201527f455243373231456e756d657261626c653a206f776e657220696e646578206f7560448201526a74206f6620626f756e647360a81b606482015260840161042d565b506001600160a01b03919091166000908152600660209081526040808320938352929052205490565b6001600160a01b038116600090815260106020526040902054156106005760405162461bcd60e51b815260206004820181905260248201527f596f7520616c7265616479206d696e7420667265652053706163652053686970604482015260640161042d565b600061060b600c5490565b90506113888111156106955760405162461bcd60e51b815260206004820152604760248201527f536f7272792c20796f752063616e277420676574206e6577205370616365536860448201527f69702e204e6f206d6f726520736869707320696e206f757220737061636520736064820152663a30ba34b7b71760c91b608482015260a40161042d565b60006106a16004610dad565b6106ac906001611cfb565b90506000600d6106be8360ff16610e02565b6040516020016106cf929190611d2f565b60405160208183030381529060405290506106ee600c80546001019055565b6106f88484610f00565b6107028382610f1a565b5060408051610100808201835293815260196020808301918252600a8385019081526001606085018181526080860182815260ff98891660a08801908152600060c0890181815260e08a018281526001600160a01b03909e16825260108852998120805480870182559082529690209751600390960290970194855594519184018054935191519551965197511515650100000000000265ff000000000019988a16640100000000029890981665ffff0000000019978a1663010000000263ff00000019978b1662010000029790971663ffff000019938b16909b0261ffff199095169390991692909217929092179190911696909617919091179190911692909217179091559051600290910155565b6104ce838383604051806020016040528060008152506109d9565b600061083960085490565b821061089c5760405162461bcd60e51b815260206004820152602c60248201527f455243373231456e756d657261626c653a20676c6f62616c20696e646578206f60448201526b7574206f6620626f756e647360a01b606482015260840161042d565b600882815481106108af576108af611dfb565b90600052602060002001549050919050565b6000818152600260205260408120546001600160a01b0316806102f95760405162461bcd60e51b8152602060048201526018602482015277115490cdcc8c4e881a5b9d985b1a59081d1bdad95b88125160421b604482015260640161042d565b60006001600160a01b03821661098b5760405162461bcd60e51b815260206004820152602960248201527f4552433732313a2061646472657373207a65726f206973206e6f7420612076616044820152683634b21037bbb732b960b91b606482015260840161042d565b506001600160a01b031660009081526003602052604090205490565b6109af610fb4565b6109b9600061100e565b565b60606001805461030e90611c5c565b6109d5338383611060565b5050565b6109e33383610b87565b6109ff5760405162461bcd60e51b815260040161042d90611c97565b610a0b8484848461112f565b50505050565b60606102f982611162565b610a24610fb4565b6001600160a01b038116610a895760405162461bcd60e51b815260206004820152602660248201527f4f776e61626c653a206e6577206f776e657220697320746865207a65726f206160448201526564647265737360d01b606482015260840161042d565b610a928161100e565b50565b60006001600160e01b0319821663780e9d6360e01b14806102f957506102f98261126b565b6000818152600260205260409020546001600160a01b0316610a925760405162461bcd60e51b8152602060048201526018602482015277115490cdcc8c4e881a5b9d985b1a59081d1bdad95b88125160421b604482015260640161042d565b600081815260046020526040902080546001600160a01b0319166001600160a01b0384169081179091558190610b4e826108c1565b6001600160a01b03167f8c5be1e5ebec7d5bd14f71427d1e84f3dd0314c0f7b2291e5b200ac8c7c3b92560405160405180910390a45050565b600080610b93836108c1565b9050806001600160a01b0316846001600160a01b03161480610bda57506001600160a01b0380821660009081526005602090815260408083209388168352929052205460ff165b80610bfe5750836001600160a01b0316610bf384610391565b6001600160a01b0316145b949350505050565b826001600160a01b0316610c19826108c1565b6001600160a01b031614610c7d5760405162461bcd60e51b815260206004820152602560248201527f4552433732313a207472616e736665722066726f6d20696e636f72726563742060448201526437bbb732b960d91b606482015260840161042d565b6001600160a01b038216610cdf5760405162461bcd60e51b8152602060048201526024808201527f4552433732313a207472616e7366657220746f20746865207a65726f206164646044820152637265737360e01b606482015260840161042d565b610cea8383836112bb565b610cf5600082610b19565b6001600160a01b0383166000908152600360205260408120805460019290610d1e908490611e11565b90915550506001600160a01b0382166000908152600360205260408120805460019290610d4c908490611cfb565b909155505060008181526002602052604080822080546001600160a01b0319166001600160a01b0386811691821790925591518493918716917fddf252ad1be2c89b69c2b068fc378daa952ba7f163c4a11628f55a4df523b3ef91a4505050565b600081600144426001604051602001610ddf949392919093845260208401929092526040830152606082015260800190565b6040516020818303038152906040528051906020012060001c6102f99190611e3e565b606081610e265750506040805180820190915260018152600360fc1b602082015290565b8160005b8115610e505780610e3a81611e52565b9150610e499050600a83611e6d565b9150610e2a565b60008167ffffffffffffffff811115610e6b57610e6b611b37565b6040519080825280601f01601f191660200182016040528015610e95576020820181803683370190505b5090505b8415610bfe57610eaa600183611e11565b9150610eb7600a86611e3e565b610ec2906030611cfb565b60f81b818381518110610ed757610ed7611dfb565b60200101906001600160f81b031916908160001a905350610ef9600a86611e6d565b9450610e99565b6109d58282604051806020016040528060008152506112c6565b6000828152600260205260409020546001600160a01b0316610f955760405162461bcd60e51b815260206004820152602e60248201527f45524337323155524953746f726167653a2055524920736574206f66206e6f6e60448201526d32bc34b9ba32b73a103a37b5b2b760911b606482015260840161042d565b6000828152600a6020908152604090912082516104ce9284019061190e565b600b546001600160a01b031633146109b95760405162461bcd60e51b815260206004820181905260248201527f4f776e61626c653a2063616c6c6572206973206e6f7420746865206f776e6572604482015260640161042d565b600b80546001600160a01b038381166001600160a01b0319831681179093556040519116919082907f8be0079c531659141344cd1fd0a4f28419497f9722a3daafe3b4186f6b6457e090600090a35050565b816001600160a01b0316836001600160a01b031614156110c25760405162461bcd60e51b815260206004820152601960248201527f4552433732313a20617070726f766520746f2063616c6c657200000000000000604482015260640161042d565b6001600160a01b03838116600081815260056020908152604080832094871680845294825291829020805460ff191686151590811790915591519182527f17307eab39ab6107e8899845ad3d59bd9653f200f220920489ca2b5937696c31910160405180910390a3505050565b61113a848484610c06565b611146848484846112f9565b610a0b5760405162461bcd60e51b815260040161042d90611e81565b606061116d82610aba565b6000828152600a60205260408120805461118690611c5c565b80601f01602080910402602001604051908101604052809291908181526020018280546111b290611c5c565b80156111ff5780601f106111d4576101008083540402835291602001916111ff565b820191906000526020600020905b8154815290600101906020018083116111e257829003601f168201915b50505050509050600061121d60408051602081019091526000815290565b9050805160001415611230575092915050565b81511561126257808260405160200161124a929190611ed3565b60405160208183030381529060405292505050919050565b610bfe84611406565b60006001600160e01b031982166380ac58cd60e01b148061129c57506001600160e01b03198216635b5e139f60e01b145b806102f957506301ffc9a760e01b6001600160e01b03198316146102f9565b6104ce83838361147a565b6112d08383611532565b6112dd60008484846112f9565b6104ce5760405162461bcd60e51b815260040161042d90611e81565b60006001600160a01b0384163b156113fb57604051630a85bd0160e11b81526001600160a01b0385169063150b7a029061133d903390899088908890600401611f02565b602060405180830381600087803b15801561135757600080fd5b505af1925050508015611387575060408051601f3d908101601f1916820190925261138491810190611f3f565b60015b6113e1573d8080156113b5576040519150601f19603f3d011682016040523d82523d6000602084013e6113ba565b606091505b5080516113d95760405162461bcd60e51b815260040161042d90611e81565b805181602001fd5b6001600160e01b031916630a85bd0160e11b149050610bfe565b506001949350505050565b606061141182610aba565b600061142860408051602081019091526000815290565b905060008151116114485760405180602001604052806000815250611473565b8061145284611680565b604051602001611463929190611ed3565b6040516020818303038152906040525b9392505050565b6001600160a01b0383166114d5576114d081600880546000838152600960205260408120829055600182018355919091527ff3f7a9fe364faab93b216da50a3214154f22a0a2b415b23a84c8169e8b636ee30155565b6114f8565b816001600160a01b0316836001600160a01b0316146114f8576114f8838261177e565b6001600160a01b03821661150f576104ce8161181b565b826001600160a01b0316826001600160a01b0316146104ce576104ce82826118ca565b6001600160a01b0382166115885760405162461bcd60e51b815260206004820181905260248201527f4552433732313a206d696e7420746f20746865207a65726f2061646472657373604482015260640161042d565b6000818152600260205260409020546001600160a01b0316156115ed5760405162461bcd60e51b815260206004820152601c60248201527f4552433732313a20746f6b656e20616c7265616479206d696e74656400000000604482015260640161042d565b6115f9600083836112bb565b6001600160a01b0382166000908152600360205260408120805460019290611622908490611cfb565b909155505060008181526002602052604080822080546001600160a01b0319166001600160a01b03861690811790915590518392907fddf252ad1be2c89b69c2b068fc378daa952ba7f163c4a11628f55a4df523b3ef908290a45050565b6060816116a45750506040805180820190915260018152600360fc1b602082015290565b8160005b81156116ce57806116b881611e52565b91506116c79050600a83611e6d565b91506116a8565b60008167ffffffffffffffff8111156116e9576116e9611b37565b6040519080825280601f01601f191660200182016040528015611713576020820181803683370190505b5090505b8415610bfe57611728600183611e11565b9150611735600a86611e3e565b611740906030611cfb565b60f81b81838151811061175557611755611dfb565b60200101906001600160f81b031916908160001a905350611777600a86611e6d565b9450611717565b6000600161178b84610921565b6117959190611e11565b6000838152600760205260409020549091508082146117e8576001600160a01b03841660009081526006602090815260408083208584528252808320548484528184208190558352600790915290208190555b5060009182526007602090815260408084208490556001600160a01b039094168352600681528383209183525290812055565b60085460009061182d90600190611e11565b6000838152600960205260408120546008805493945090928490811061185557611855611dfb565b90600052602060002001549050806008838154811061187657611876611dfb565b60009182526020808320909101929092558281526009909152604080822084905585825281205560088054806118ae576118ae611f5c565b6001900381819060005260206000200160009055905550505050565b60006118d583610921565b6001600160a01b039093166000908152600660209081526040808320868452825280832085905593825260079052919091209190915550565b82805461191a90611c5c565b90600052602060002090601f01602090048101928261193c5760008555611982565b82601f1061195557805160ff1916838001178555611982565b82800160010185558215611982579182015b82811115611982578251825591602001919060010190611967565b5061198e929150611992565b5090565b5b8082111561198e5760008155600101611993565b6001600160e01b031981168114610a9257600080fd5b6000602082840312156119cf57600080fd5b8135611473816119a7565b60005b838110156119f55781810151838201526020016119dd565b83811115610a0b5750506000910152565b60008151808452611a1e8160208601602086016119da565b601f01601f19169290920160200192915050565b6020815260006114736020830184611a06565b600060208284031215611a5757600080fd5b5035919050565b80356001600160a01b0381168114611a7557600080fd5b919050565b60008060408385031215611a8d57600080fd5b611a9683611a5e565b946020939093013593505050565b600080600060608486031215611ab957600080fd5b611ac284611a5e565b9250611ad060208501611a5e565b9150604084013590509250925092565b600060208284031215611af257600080fd5b61147382611a5e565b60008060408385031215611b0e57600080fd5b611b1783611a5e565b915060208301358015158114611b2c57600080fd5b809150509250929050565b634e487b7160e01b600052604160045260246000fd5b60008060008060808587031215611b6357600080fd5b611b6c85611a5e565b9350611b7a60208601611a5e565b925060408501359150606085013567ffffffffffffffff80821115611b9e57600080fd5b818701915087601f830112611bb257600080fd5b813581811115611bc457611bc4611b37565b604051601f8201601f19908116603f01168101908382118183101715611bec57611bec611b37565b816040528281528a6020848701011115611c0557600080fd5b82602086016020830137600060208483010152809550505050505092959194509250565b60008060408385031215611c3c57600080fd5b611c4583611a5e565b9150611c5360208401611a5e565b90509250929050565b600181811c90821680611c7057607f821691505b60208210811415611c9157634e487b7160e01b600052602260045260246000fd5b50919050565b6020808252602e908201527f4552433732313a2063616c6c6572206973206e6f7420746f6b656e206f776e6560408201526d1c881b9bdc88185c1c1c9bdd995960921b606082015260800190565b634e487b7160e01b600052601160045260246000fd5b60008219821115611d0e57611d0e611ce5565b500190565b60008151611d258185602086016119da565b9290920192915050565b600080845481600182811c915080831680611d4b57607f831692505b6020808410821415611d6b57634e487b7160e01b86526022600452602486fd5b818015611d7f5760018114611d9057611dbd565b60ff19861689528489019650611dbd565b60008b81526020902060005b86811015611db55781548b820152908501908301611d9c565b505084890196505b505050505050611df2611de0611dda83602f60f81b815260010190565b86611d13565b652d312e706e6760d01b815260060190565b95945050505050565b634e487b7160e01b600052603260045260246000fd5b600082821015611e2357611e23611ce5565b500390565b634e487b7160e01b600052601260045260246000fd5b600082611e4d57611e4d611e28565b500690565b6000600019821415611e6657611e66611ce5565b5060010190565b600082611e7c57611e7c611e28565b500490565b60208082526032908201527f4552433732313a207472616e7366657220746f206e6f6e20455243373231526560408201527131b2b4bb32b91034b6b83632b6b2b73a32b960711b606082015260800190565b60008351611ee58184602088016119da565b835190830190611ef98183602088016119da565b01949350505050565b6001600160a01b0385811682528416602082015260408101839052608060608201819052600090611f3590830184611a06565b9695505050505050565b600060208284031215611f5157600080fd5b8151611473816119a7565b634e487b7160e01b600052603160045260246000fdfea2646970667358221220bbe21d2b50d7e7926f27c4cb5400c95f1b1578144c28f4bb915fd285107a381d64736f6c63430008090033",
  "linkReferences": {},
  "deployedLinkReferences": {}
}