{
  "_format": "hh-sol-artifact-1",
  "contractName": "SpaceRanger",
  "sourceName": "contracts/SpaceRanger.sol",
  "abi": [
    {
      "inputs": [],
      "stateMutability": "nonpayable",
      "type": "constructor"
    },
    {
      "anonymous": false,
      "inputs": [
        {
          "indexed": true,
          "internalType": "address",
          "name": "account",
          "type": "address"
        },
        {
          "indexed": true,
          "internalType": "address",
          "name": "operator",
          "type": "address"
        },
        {
          "indexed": false,
          "internalType": "bool",
          "name": "approved",
          "type": "bool"
        }
      ],
      "name": "ApprovalForAll",
      "type": "event"
    },
    {
      "anonymous": false,
      "inputs": [
        {
          "indexed": true,
          "internalType": "address",
          "name": "previousOwner",
          "type": "address"
        },
        {
          "indexed": true,
          "internalType": "address",
          "name": "newOwner",
          "type": "address"
        }
      ],
      "name": "OwnershipTransferred",
      "type": "event"
    },
    {
      "anonymous": false,
      "inputs": [
        {
          "indexed": true,
          "internalType": "address",
          "name": "operator",
          "type": "address"
        },
        {
          "indexed": true,
          "internalType": "address",
          "name": "from",
          "type": "address"
        },
        {
          "indexed": true,
          "internalType": "address",
          "name": "to",
          "type": "address"
        },
        {
          "indexed": false,
          "internalType": "uint256[]",
          "name": "ids",
          "type": "uint256[]"
        },
        {
          "indexed": false,
          "internalType": "uint256[]",
          "name": "values",
          "type": "uint256[]"
        }
      ],
      "name": "TransferBatch",
      "type": "event"
    },
    {
      "anonymous": false,
      "inputs": [
        {
          "indexed": true,
          "internalType": "address",
          "name": "operator",
          "type": "address"
        },
        {
          "indexed": true,
          "internalType": "address",
          "name": "from",
          "type": "address"
        },
        {
          "indexed": true,
          "internalType": "address",
          "name": "to",
          "type": "address"
        },
        {
          "indexed": false,
          "internalType": "uint256",
          "name": "id",
          "type": "uint256"
        },
        {
          "indexed": false,
          "internalType": "uint256",
          "name": "value",
          "type": "uint256"
        }
      ],
      "name": "TransferSingle",
      "type": "event"
    },
    {
      "anonymous": false,
      "inputs": [
        {
          "indexed": false,
          "internalType": "string",
          "name": "value",
          "type": "string"
        },
        {
          "indexed": true,
          "internalType": "uint256",
          "name": "id",
          "type": "uint256"
        }
      ],
      "name": "URI",
      "type": "event"
    },
    {
      "inputs": [],
      "name": "SHIPS_TYPE_SUPPLY",
      "outputs": [
        {
          "internalType": "uint256",
          "name": "",
          "type": "uint256"
        }
      ],
      "stateMutability": "view",
      "type": "function"
    },
    {
      "inputs": [
        {
          "internalType": "address",
          "name": "account",
          "type": "address"
        },
        {
          "internalType": "uint256",
          "name": "id",
          "type": "uint256"
        }
      ],
      "name": "balanceOf",
      "outputs": [
        {
          "internalType": "uint256",
          "name": "",
          "type": "uint256"
        }
      ],
      "stateMutability": "view",
      "type": "function"
    },
    {
      "inputs": [
        {
          "internalType": "address[]",
          "name": "accounts",
          "type": "address[]"
        },
        {
          "internalType": "uint256[]",
          "name": "ids",
          "type": "uint256[]"
        }
      ],
      "name": "balanceOfBatch",
      "outputs": [
        {
          "internalType": "uint256[]",
          "name": "",
          "type": "uint256[]"
        }
      ],
      "stateMutability": "view",
      "type": "function"
    },
    {
      "inputs": [
        {
          "internalType": "address",
          "name": "account",
          "type": "address"
        },
        {
          "internalType": "uint256",
          "name": "id",
          "type": "uint256"
        },
        {
          "internalType": "uint256",
          "name": "value",
          "type": "uint256"
        }
      ],
      "name": "burn",
      "outputs": [],
      "stateMutability": "nonpayable",
      "type": "function"
    },
    {
      "inputs": [
        {
          "internalType": "address",
          "name": "account",
          "type": "address"
        },
        {
          "internalType": "uint256[]",
          "name": "ids",
          "type": "uint256[]"
        },
        {
          "internalType": "uint256[]",
          "name": "values",
          "type": "uint256[]"
        }
      ],
      "name": "burnBatch",
      "outputs": [],
      "stateMutability": "nonpayable",
      "type": "function"
    },
    {
      "inputs": [
        {
          "internalType": "uint256",
          "name": "_scores",
          "type": "uint256"
        }
      ],
      "name": "claimRewards",
      "outputs": [],
      "stateMutability": "nonpayable",
      "type": "function"
    },
    {
      "inputs": [
        {
          "internalType": "address",
          "name": "_owner",
          "type": "address"
        }
      ],
      "name": "getUserShips",
      "outputs": [
        {
          "components": [
            {
              "internalType": "uint256",
              "name": "id",
              "type": "uint256"
            },
            {
              "internalType": "uint8",
              "name": "health",
              "type": "uint8"
            },
            {
              "internalType": "uint8",
              "name": "attack",
              "type": "uint8"
            },
            {
              "internalType": "uint8",
              "name": "weapons",
              "type": "uint8"
            },
            {
              "internalType": "uint8",
              "name": "speed",
              "type": "uint8"
            },
            {
              "internalType": "uint8",
              "name": "level",
              "type": "uint8"
            },
            {
              "internalType": "uint8",
              "name": "currentEnergy",
              "type": "uint8"
            },
            {
              "internalType": "uint8",
              "name": "maxEnergy",
              "type": "uint8"
            },
            {
              "internalType": "uint8",
              "name": "shipType",
              "type": "uint8"
            },
            {
              "internalType": "bool",
              "name": "onSale",
              "type": "bool"
            },
            {
              "internalType": "uint256",
              "name": "salePrice",
              "type": "uint256"
            },
            {
              "internalType": "uint256",
              "name": "totalBattles",
              "type": "uint256"
            },
            {
              "internalType": "enum SpaceRanger.ShipUpgradeType[]",
              "name": "upgrades",
              "type": "uint8[]"
            }
          ],
          "internalType": "struct SpaceRanger.Ship[]",
          "name": "",
          "type": "tuple[]"
        }
      ],
      "stateMutability": "view",
      "type": "function"
    },
    {
      "inputs": [
        {
          "internalType": "address",
          "name": "account",
          "type": "address"
        },
        {
          "internalType": "address",
          "name": "operator",
          "type": "address"
        }
      ],
      "name": "isApprovedForAll",
      "outputs": [
        {
          "internalType": "bool",
          "name": "",
          "type": "bool"
        }
      ],
      "stateMutability": "view",
      "type": "function"
    },
    {
      "inputs": [
        {
          "internalType": "address",
          "name": "",
          "type": "address"
        }
      ],
      "name": "lastFlyTime",
      "outputs": [
        {
          "internalType": "uint256",
          "name": "",
          "type": "uint256"
        }
      ],
      "stateMutability": "view",
      "type": "function"
    },
    {
      "inputs": [
        {
          "internalType": "uint8",
          "name": "_shipTypeId",
          "type": "uint8"
        }
      ],
      "name": "mint",
      "outputs": [],
      "stateMutability": "nonpayable",
      "type": "function"
    },
    {
      "inputs": [
        {
          "internalType": "uint256",
          "name": "",
          "type": "uint256"
        }
      ],
      "name": "mintedShips",
      "outputs": [
        {
          "internalType": "uint16",
          "name": "",
          "type": "uint16"
        }
      ],
      "stateMutability": "view",
      "type": "function"
    },
    {
      "inputs": [],
      "name": "owner",
      "outputs": [
        {
          "internalType": "address",
          "name": "",
          "type": "address"
        }
      ],
      "stateMutability": "view",
      "type": "function"
    },
    {
      "inputs": [],
      "name": "renounceOwnership",
      "outputs": [],
      "stateMutability": "nonpayable",
      "type": "function"
    },
    {
      "inputs": [
        {
          "internalType": "address",
          "name": "from",
          "type": "address"
        },
        {
          "internalType": "address",
          "name": "to",
          "type": "address"
        },
        {
          "internalType": "uint256[]",
          "name": "ids",
          "type": "uint256[]"
        },
        {
          "internalType": "uint256[]",
          "name": "amounts",
          "type": "uint256[]"
        },
        {
          "internalType": "bytes",
          "name": "data",
          "type": "bytes"
        }
      ],
      "name": "safeBatchTransferFrom",
      "outputs": [],
      "stateMutability": "nonpayable",
      "type": "function"
    },
    {
      "inputs": [
        {
          "internalType": "address",
          "name": "from",
          "type": "address"
        },
        {
          "internalType": "address",
          "name": "to",
          "type": "address"
        },
        {
          "internalType": "uint256",
          "name": "id",
          "type": "uint256"
        },
        {
          "internalType": "uint256",
          "name": "amount",
          "type": "uint256"
        },
        {
          "internalType": "bytes",
          "name": "data",
          "type": "bytes"
        }
      ],
      "name": "safeTransferFrom",
      "outputs": [],
      "stateMutability": "nonpayable",
      "type": "function"
    },
    {
      "inputs": [
        {
          "internalType": "address",
          "name": "operator",
          "type": "address"
        },
        {
          "internalType": "bool",
          "name": "approved",
          "type": "bool"
        }
      ],
      "name": "setApprovalForAll",
      "outputs": [],
      "stateMutability": "nonpayable",
      "type": "function"
    },
    {
      "inputs": [
        {
          "internalType": "string",
          "name": "_uri",
          "type": "string"
        }
      ],
      "name": "setURI",
      "outputs": [],
      "stateMutability": "nonpayable",
      "type": "function"
    },
    {
      "inputs": [
        {
          "internalType": "uint256",
          "name": "",
          "type": "uint256"
        }
      ],
      "name": "ships",
      "outputs": [
        {
          "internalType": "uint256",
          "name": "id",
          "type": "uint256"
        },
        {
          "internalType": "uint8",
          "name": "health",
          "type": "uint8"
        },
        {
          "internalType": "uint8",
          "name": "attack",
          "type": "uint8"
        },
        {
          "internalType": "uint8",
          "name": "weapons",
          "type": "uint8"
        },
        {
          "internalType": "uint8",
          "name": "speed",
          "type": "uint8"
        },
        {
          "internalType": "uint8",
          "name": "level",
          "type": "uint8"
        },
        {
          "internalType": "uint8",
          "name": "currentEnergy",
          "type": "uint8"
        },
        {
          "internalType": "uint8",
          "name": "maxEnergy",
          "type": "uint8"
        },
        {
          "internalType": "uint8",
          "name": "shipType",
          "type": "uint8"
        },
        {
          "internalType": "bool",
          "name": "onSale",
          "type": "bool"
        },
        {
          "internalType": "uint256",
          "name": "salePrice",
          "type": "uint256"
        },
        {
          "internalType": "uint256",
          "name": "totalBattles",
          "type": "uint256"
        }
      ],
      "stateMutability": "view",
      "type": "function"
    },
    {
      "inputs": [
        {
          "internalType": "string",
          "name": "numString",
          "type": "string"
        }
      ],
      "name": "stringToUint",
      "outputs": [
        {
          "internalType": "uint256",
          "name": "",
          "type": "uint256"
        }
      ],
      "stateMutability": "pure",
      "type": "function"
    },
    {
      "inputs": [
        {
          "internalType": "bytes4",
          "name": "interfaceId",
          "type": "bytes4"
        }
      ],
      "name": "supportsInterface",
      "outputs": [
        {
          "internalType": "bool",
          "name": "",
          "type": "bool"
        }
      ],
      "stateMutability": "view",
      "type": "function"
    },
    {
      "inputs": [],
      "name": "totalMintedShips",
      "outputs": [
        {
          "internalType": "uint256",
          "name": "",
          "type": "uint256"
        }
      ],
      "stateMutability": "view",
      "type": "function"
    },
    {
      "inputs": [
        {
          "internalType": "address",
          "name": "newOwner",
          "type": "address"
        }
      ],
      "name": "transferOwnership",
      "outputs": [],
      "stateMutability": "nonpayable",
      "type": "function"
    },
    {
      "inputs": [
        {
          "internalType": "uint256",
          "name": "_id",
          "type": "uint256"
        },
        {
          "internalType": "enum SpaceRanger.ShipUpgradeType",
          "name": "_upgradeType",
          "type": "uint8"
        }
      ],
      "name": "upgradeShipCharacteristics",
      "outputs": [],
      "stateMutability": "nonpayable",
      "type": "function"
    },
    {
      "inputs": [
        {
          "internalType": "uint256",
          "name": "_id",
          "type": "uint256"
        }
      ],
      "name": "upgradeShipLevel",
      "outputs": [],
      "stateMutability": "nonpayable",
      "type": "function"
    },
    {
      "inputs": [
        {
          "internalType": "uint256",
          "name": "_tokenId",
          "type": "uint256"
        }
      ],
      "name": "uri",
      "outputs": [
        {
          "internalType": "string",
          "name": "",
          "type": "string"
        }
      ],
      "stateMutability": "pure",
      "type": "function"
    },
    {
      "inputs": [
        {
          "internalType": "address",
          "name": "",
          "type": "address"
        }
      ],
      "name": "userBalance",
      "outputs": [
        {
          "internalType": "uint256",
          "name": "",
          "type": "uint256"
        }
      ],
      "stateMutability": "view",
      "type": "function"
    },
    {
      "inputs": [
        {
          "internalType": "address",
          "name": "",
          "type": "address"
        }
      ],
      "name": "userLevel",
      "outputs": [
        {
          "internalType": "uint256",
          "name": "",
          "type": "uint256"
        }
      ],
      "stateMutability": "view",
      "type": "function"
    },
    {
      "inputs": [
        {
          "internalType": "address",
          "name": "",
          "type": "address"
        },
        {
          "internalType": "uint256",
          "name": "",
          "type": "uint256"
        }
      ],
      "name": "userShips",
      "outputs": [
        {
          "internalType": "uint256",
          "name": "",
          "type": "uint256"
        }
      ],
      "stateMutability": "view",
      "type": "function"
    }
  ],
  "bytecode": "0x6101206040526000608081815260a082905260c082905260e08290526101009190915262000032906004906005620000e8565b5060006005553480156200004557600080fd5b506040518060a001604052806062815260200162003a1a606291396200006b816200007d565b50620000773362000096565b62000268565b80516200009290600290602084019062000197565b5050565b600380546001600160a01b038381166001600160a01b0319831681179093556040519116919082907f8be0079c531659141344cd1fd0a4f28419497f9722a3daafe3b4186f6b6457e090600090a35050565b82805482825590600052602060002090600f01601090048101928215620001855791602002820160005b838211156200015357835183826101000a81548161ffff021916908360ff160217905550926020019260020160208160010104928301926001030262000112565b8015620001835782816101000a81549061ffff021916905560020160208160010104928301926001030262000153565b505b506200019392915062000214565b5090565b828054620001a5906200022b565b90600052602060002090601f016020900481019282620001c9576000855562000185565b82601f10620001e457805160ff191683800117855562000185565b8280016001018555821562000185579182015b8281111562000185578251825591602001919060010190620001f7565b5b8082111562000193576000815560010162000215565b600181811c908216806200024057607f821691505b602082108114156200026257634e487b7160e01b600052602260045260246000fd5b50919050565b6137a280620002786000396000f3fe608060405234801561001057600080fd5b50600436106101c35760003560e01c80634e1273f4116100f9578063a22cb46511610097578063e985e9c511610071578063e985e9c5146104e6578063f242432a14610522578063f2fde38b14610535578063f5298aca1461054857600080fd5b8063a22cb465146104b7578063b062d9b5146104ca578063baf45424146104d357600080fd5b80636ecd2306116100d35780636ecd23061461045b578063715018a61461046e57806378655c09146104765780638da5cb5b1461049c57600080fd5b80634e1273f4146104155780635b3fdb6a146104355780636b20c4541461044857600080fd5b80631795e83c11610166578063280e31cc11610140578063280e31cc146102df5780632eb2c2d6146102ff5780633779a025146103125780634d4e8dfa1461031b57600080fd5b80631795e83c1461028c57806317cb4935146102ac5780631bd95155146102cc57600080fd5b806302fe5305116101a257806302fe530514610231578063039f82f8146102465780630962ef79146102595780630e89341c1461026c57600080fd5b8062fdd58e146101c85780630103c92b146101ee57806301ffc9a71461020e575b600080fd5b6101db6101d6366004612909565b61055b565b6040519081526020015b60405180910390f35b6101db6101fc366004612933565b60066020526000908152604090205481565b61022161021c36600461296b565b6105f4565b60405190151581526020016101e5565b61024461023f366004612a27565b610644565b005b610244610254366004612a6f565b610658565b610244610267366004612aa3565b610a93565b61027f61027a366004612aa3565b610aba565b6040516101e59190612b14565b6101db61029a366004612933565b600a6020526000908152604090205481565b6102bf6102ba366004612933565b610aeb565b6040516101e59190612b97565b6101db6102da366004612a27565b610d90565b6101db6102ed366004612933565b60076020526000908152604090205481565b61024461030d366004612d4c565b610e34565b6101db6103e881565b6103a9610329366004612aa3565b6008602052600090815260409020805460018201546002830154600390930154919260ff80831693610100840482169362010000810483169363010000008204841693640100000000830481169365010000000000840482169366010000000000008104831693600160381b8204841693600160401b909204909116918c565b604080519c8d5260ff9b8c1660208e0152998b16998c019990995296891660608b015294881660808a015292871660a089015290861660c0880152851660e0870152909316610100850152911515610120840152610140830191909152610160820152610180016101e5565b610428610423366004612df5565b610e80565b6040516101e59190612efa565b610244610443366004612aa3565b610fa9565b610244610456366004612f0d565b61140c565b610244610469366004612f80565b611454565b610244611928565b610489610484366004612aa3565b61193c565b60405161ffff90911681526020016101e5565b6003546040516001600160a01b0390911681526020016101e5565b6102446104c5366004612fa3565b611974565b6101db60055481565b6101db6104e1366004612909565b611983565b6102216104f4366004612fd4565b6001600160a01b03918216600090815260016020908152604080832093909416825291909152205460ff1690565b610244610530366004613007565b6119b4565b610244610543366004612933565b6119f9565b61024461055636600461306b565b611a6f565b60006001600160a01b0383166105cb5760405162461bcd60e51b815260206004820152602a60248201527f455243313135353a2061646472657373207a65726f206973206e6f742061207660448201526930b634b21037bbb732b960b11b60648201526084015b60405180910390fd5b506000818152602081815260408083206001600160a01b03861684529091529020545b92915050565b60006001600160e01b03198216636cdb3d1360e11b148061062557506001600160e01b031982166303a24d0760e21b145b806105ee57506301ffc9a760e01b6001600160e01b03198316146105ee565b61064c611ab2565b61065581611b0c565b50565b6000828152600860205260409020805483146106ac5760405162461bcd60e51b815260206004820152601360248201527214dc1858d954da1a5c081b9bdd08199bdd5b99606a1b60448201526064016105c2565b60048101546006116107105760405162461bcd60e51b815260206004820152602760248201527f43616e2774207570677261646520736869702c2073706f7473206c696d6974206044820152661c995858da195960ca1b60648201526084016105c2565b6000805b600483015481101561079c5783600381111561073257610732612b27565b8360040182815481106107475761074761309e565b90600052602060002090602091828204019190069054906101000a900460ff16600381111561077857610778612b27565b141561078c5781610788816130ca565b9250505b610795816130ea565b9050610714565b5060008360038111156107b1576107b1612b27565b14156108535760038160ff161061081b5760405162461bcd60e51b815260206004820152602860248201527f43616e277420757067726164652c2061726d6f722073706f7473206c696d6974604482015267081c995858da195960c21b60648201526084016105c2565b6001820180546002919060009061083690849060ff16613105565b92506101000a81548160ff021916908360ff160217905550610a45565b600183600381111561086757610867612b27565b14156108ef5760ff8116156108d05760405162461bcd60e51b815260206004820152602960248201527f43616e277420757067726164652c20656e67696e652073706f7473206c696d696044820152681d081c995858da195960ba1b60648201526084016105c2565b600182810180546003906108369084906301000000900460ff16613105565b600383600381111561090357610903612b27565b141561098c5760028160ff161061096e5760405162461bcd60e51b815260206004820152602960248201527f43616e277420757067726164652c20776561706f6e2073706f7473206c696d696044820152681d081c995858da195960ba1b60648201526084016105c2565b6001828101805460029290610836908490610100900460ff16613105565b60028360038111156109a0576109a0612b27565b1415610a455760028160ff1610610a0b5760405162461bcd60e51b815260206004820152602960248201527f43616e277420757067726164652c20656e657267792073706f7473206c696d696044820152681d081c995858da195960ba1b60648201526084016105c2565b60028260010160068282829054906101000a900460ff16610a2c9190613105565b92506101000a81548160ff021916908360ff1602179055505b600482018054600181018255600091825260209182902091810490910180548592601f166101000a60ff81021990911690836003811115610a8857610a88612b27565b021790555050505050565b3360009081526006602052604081208054839290610ab290849061312a565b909155505050565b6060610ac582611b1f565b604051602001610ad59190613142565b6040516020818303038152906040529050919050565b6001600160a01b038116600090815260096020526040812054606091906001600160401b03811115610b1f57610b1f612988565b604051908082528060200260200182016040528015610bb857816020015b604080516101a0810182526000808252602080830182905292820181905260608083018290526080830182905260a0830182905260c0830182905260e083018290526101008301829052610120830182905261014083018290526101608301919091526101808201528252600019909201910181610b3d5790505b50905060005b6001600160a01b038416600090815260096020526040902054811015610d89576001600160a01b03841660009081526009602052604081208054600892919084908110610c0d57610c0d61309e565b60009182526020808320909101548352828101939093526040918201902081516101a08101835281548152600182015460ff808216838701526101008083048216848701526201000083048216606085015263010000008304821660808501526401000000008304821660a0850152650100000000008304821660c085015266010000000000008304821660e0850152600160381b8304821690840152600160401b9091041615156101208201526002820154610140820152600382015461016082015260048201805484518187028101870190955280855291949293610180860193909290830182828015610d5257602002820191906000526020600020906000905b82829054906101000a900460ff166003811115610d3057610d30612b27565b815260206001928301818104948501949093039092029101808411610d115790505b505050505081525050828281518110610d6d57610d6d61309e565b602002602001018190525080610d82906130ea565b9050610bbe565b5092915050565b60008082815b8151811015610e2b576000818351610dae91906131d6565b90506000838381518110610dc457610dc461309e565b01602001516001600160f81b03198116915060f81c6000610de66030836131d6565b9050610df36001856131d6565b610dfe90600a6132d1565b610e0890826132dd565b610e12908861312a565b9650505050508080610e23906130ea565b915050610d96565b50909392505050565b6001600160a01b038516331480610e505750610e5085336104f4565b610e6c5760405162461bcd60e51b81526004016105c2906132fc565b610e798585858585611c24565b5050505050565b60608151835114610ee55760405162461bcd60e51b815260206004820152602960248201527f455243313135353a206163636f756e747320616e6420696473206c656e677468604482015268040dad2e6dac2e8c6d60bb1b60648201526084016105c2565b600083516001600160401b03811115610f0057610f00612988565b604051908082528060200260200182016040528015610f29578160200160208202803683370190505b50905060005b8451811015610fa157610f74858281518110610f4d57610f4d61309e565b6020026020010151858381518110610f6757610f6761309e565b602002602001015161055b565b828281518110610f8657610f8661309e565b6020908102919091010152610f9a816130ea565b9050610f2f565b509392505050565b600081815260086020908152604080832033845260098352818420805483518186028101860190945280845291949361101893929083018282801561100d57602002820191906000526020600020905b815481526020019060010190808311610ff9575b505050505084611dce565b915050806110685760405162461bcd60e51b815260206004820152601d60248201527f596f7520646f6e2774206861766520746869732053706163655368697000000060448201526064016105c2565b6001820154600364010000000090910460ff16106110d45760405162461bcd60e51b815260206004820152602360248201527f596f752063616e277420696e63726561736520537061636553686970206c657660448201526232b61760e91b60648201526084016105c2565b60018281015460009164010000000090910460ff1614156111755733600090815260066020526040902054620186a0106111445760405162461bcd60e51b81526020600482015260116024820152704e656564206d6f72652062616c616e636560781b60448201526064016105c2565b3360009081526006602052604081208054620186a092906111669084906131d6565b90915550600291506111f69050565b336000908152600660205260409020546207a120106111ca5760405162461bcd60e51b81526020600482015260116024820152704e656564206d6f72652062616c616e636560781b60448201526064016105c2565b33600090815260066020526040812080546207a12092906111ec9084906131d6565b9091555060039150505b60018301546000906112339061121590600160381b900460ff16611b1f565b600186015461122e90640100000000900460ff16611b1f565b611e2e565b90506112493361124283610d90565b6001611e5a565b60018401546000906112749061126890600160381b900460ff16611b1f565b61122e8560ff16611b1f565b905061129a3361128383610d90565b600160405180602001604052806000815250611f77565b6001808601805460ff8087166401000000000264ff000000001990921691909117918290556201000090910416141561130857600185810180546002906112eb90849062010000900460ff16613105565b92506101000a81548160ff021916908360ff16021790555061133f565b60018581018054600a9290611326908490610100900460ff16613105565b92506101000a81548160ff021916908360ff1602179055505b6001850180546014919060009061135a90849060ff16613105565b92506101000a81548160ff021916908360ff16021790555060148560010160068282829054906101000a900460ff166113939190613105565b92506101000a81548160ff021916908360ff16021790555060018560010160038282829054906101000a900460ff166113cc9190613105565b825460ff9182166101009390930a92830291909202199091161790555050505060018201805468ff00000000000000001916905550600060029091015550565b6001600160a01b038316331480611428575061142883336104f4565b6114445760405162461bcd60e51b81526004016105c2906132fc565b61144f838383612091565b505050565b60045460ff821611156114a95760405162461bcd60e51b815260206004820152601860248201527f53706163655368697020646f65736e277420657869737473000000000000000060448201526064016105c2565b60008160ff16116114f15760405162461bcd60e51b815260206004820152601260248201527115dc9bdb99c814dc1858d954da1a5c08125160721b60448201526064016105c2565b336000908152600960205260409020541561154e5760405162461bcd60e51b815260206004820152601a60248201527f596f7520616c726561647920686176652053706163655368697000000000000060448201526064016105c2565b600061155b60018361334b565b90506103e860048260ff16815481106115765761157661309e565b60009182526020909120601082040154600f9091166002026101000a900461ffff16106116005760405162461bcd60e51b815260206004820152603260248201527f4e6f206d6f7265207368697073206f662074686973206d6f646966696361746960448201527137b71034b71037bab91039ba30ba34b7b71760711b60648201526084016105c2565b6000600560008154611611906130ea565b91829055509050600061163361162960ff8616611b1f565b61122e6001611b1f565b90506116423361128383610d90565b600160048460ff168154811061165a5761165a61309e565b90600052602060002090601091828204019190066002028282829054906101000a900461ffff1661168b919061336e565b92506101000a81548161ffff021916908361ffff1602179055506000806000806116b78860ff1661222f565b93509350935093506000604051806101a001604052808881526020018660ff1681526020018560ff1681526020018360ff1681526020018460ff168152602001600160ff168152602001600a60ff168152602001600a60ff1681526020018a60ff168152602001600015158152602001600081526020016000815260200160006001600160401b0381111561174e5761174e612988565b604051908082528060200260200182016040528015611777578160200160208202803683370190505b50815250905080600860008981526020019081526020016000206000820151816000015560208201518160010160006101000a81548160ff021916908360ff16021790555060408201518160010160016101000a81548160ff021916908360ff16021790555060608201518160010160026101000a81548160ff021916908360ff16021790555060808201518160010160036101000a81548160ff021916908360ff16021790555060a08201518160010160046101000a81548160ff021916908360ff16021790555060c08201518160010160056101000a81548160ff021916908360ff16021790555060e08201518160010160066101000a81548160ff021916908360ff1602179055506101008201518160010160076101000a81548160ff021916908360ff1602179055506101208201518160010160086101000a81548160ff021916908315150217905550610140820151816002015561016082015181600301556101808201518160040190805190602001906118f89291906127b0565b50503360009081526009602090815260408220805460018101825590835291200197909755505050505050505050565b611930611ab2565b61193a60006122c0565b565b6004818154811061194c57600080fd5b9060005260206000209060109182820401919006600202915054906101000a900461ffff1681565b61197f338383612312565b5050565b6009602052816000526040600020818154811061199f57600080fd5b90600052602060002001600091509150505481565b6001600160a01b0385163314806119d057506119d085336104f4565b6119ec5760405162461bcd60e51b81526004016105c2906132fc565b610e7985858585856123f3565b611a01611ab2565b6001600160a01b038116611a665760405162461bcd60e51b815260206004820152602660248201527f4f776e61626c653a206e6577206f776e657220697320746865207a65726f206160448201526564647265737360d01b60648201526084016105c2565b610655816122c0565b6001600160a01b038316331480611a8b5750611a8b83336104f4565b611aa75760405162461bcd60e51b81526004016105c2906132fc565b61144f838383611e5a565b6003546001600160a01b0316331461193a5760405162461bcd60e51b815260206004820181905260248201527f4f776e61626c653a2063616c6c6572206973206e6f7420746865206f776e657260448201526064016105c2565b805161197f906002906020840190612864565b606081611b435750506040805180820190915260018152600360fc1b602082015290565b8160005b8115611b6d5780611b57816130ea565b9150611b669050600a836133aa565b9150611b47565b6000816001600160401b03811115611b8757611b87612988565b6040519080825280601f01601f191660200182016040528015611bb1576020820181803683370190505b5090505b8415611c1c57611bc66001836131d6565b9150611bd3600a866133be565b611bde90603061312a565b60f81b818381518110611bf357611bf361309e565b60200101906001600160f81b031916908160001a905350611c15600a866133aa565b9450611bb5565b949350505050565b8151835114611c455760405162461bcd60e51b81526004016105c2906133d2565b6001600160a01b038416611c6b5760405162461bcd60e51b81526004016105c29061341a565b33611c7a81878787878761252b565b60005b8451811015611d60576000858281518110611c9a57611c9a61309e565b602002602001015190506000858381518110611cb857611cb861309e565b602090810291909101810151600084815280835260408082206001600160a01b038e168352909352919091205490915081811015611d085760405162461bcd60e51b81526004016105c29061345f565b6000838152602081815260408083206001600160a01b038e8116855292528083208585039055908b16825281208054849290611d4590849061312a565b9250508190555050505080611d59906130ea565b9050611c7d565b50846001600160a01b0316866001600160a01b0316826001600160a01b03167f4a39dc06d4c0dbc64b70af90fd698a233a518aa5d07e595d983b8c0526c8f7fb8787604051611db09291906134a9565b60405180910390a4611dc6818787878787612530565b505050505050565b81516000908190815b81811015611e1d5784868281518110611df257611df261309e565b60200260200101511415611e0d57925060019150611e279050565b611e16816130ea565b9050611dd7565b5060008092509250505b9250929050565b60608282604051602001611e439291906134d7565b604051602081830303815290604052905092915050565b6001600160a01b038316611e805760405162461bcd60e51b81526004016105c2906134fd565b336000611e8c8461269b565b90506000611e998461269b565b9050611eb98387600085856040518060200160405280600081525061252b565b6000858152602081815260408083206001600160a01b038a16845290915290205484811015611efa5760405162461bcd60e51b81526004016105c290613540565b6000868152602081815260408083206001600160a01b038b81168086529184528285208a8703905582518b81529384018a90529092908816917fc3d58168c5ae7397731d063d5bbf3d657854427343f4c083240f7aacaa2d0f62910160405180910390a46040805160208101909152600090525b50505050505050565b6001600160a01b038416611fd75760405162461bcd60e51b815260206004820152602160248201527f455243313135353a206d696e7420746f20746865207a65726f206164647265736044820152607360f81b60648201526084016105c2565b336000611fe38561269b565b90506000611ff08561269b565b90506120018360008985858961252b565b6000868152602081815260408083206001600160a01b038b1684529091528120805487929061203190849061312a565b909155505060408051878152602081018790526001600160a01b03808a1692600092918716917fc3d58168c5ae7397731d063d5bbf3d657854427343f4c083240f7aacaa2d0f62910160405180910390a4611f6e836000898989896126e6565b6001600160a01b0383166120b75760405162461bcd60e51b81526004016105c2906134fd565b80518251146120d85760405162461bcd60e51b81526004016105c2906133d2565b60003390506120fb8185600086866040518060200160405280600081525061252b565b60005b83518110156121c057600084828151811061211b5761211b61309e565b6020026020010151905060008483815181106121395761213961309e565b602090810291909101810151600084815280835260408082206001600160a01b038c1683529093529190912054909150818110156121895760405162461bcd60e51b81526004016105c290613540565b6000928352602083815260408085206001600160a01b038b16865290915290922091039055806121b8816130ea565b9150506120fe565b5060006001600160a01b0316846001600160a01b0316826001600160a01b03167f4a39dc06d4c0dbc64b70af90fd698a233a518aa5d07e595d983b8c0526c8f7fb86866040516122119291906134a9565b60405180910390a46040805160208101909152600090525b50505050565b60008060008084600b1415612252575060199250600c91506005905060016122b9565b846015141561226f5750601a9250600a91506006905060016122b9565b84601f141561228c575060159250600791506004905060026122b9565b84602914156122a95750601a9250600b91506005905060016122b9565b5060179250600691506004905060025b9193509193565b600380546001600160a01b038381166001600160a01b0319831681179093556040519116919082907f8be0079c531659141344cd1fd0a4f28419497f9722a3daafe3b4186f6b6457e090600090a35050565b816001600160a01b0316836001600160a01b031614156123865760405162461bcd60e51b815260206004820152602960248201527f455243313135353a2073657474696e6720617070726f76616c20737461747573604482015268103337b91039b2b63360b91b60648201526084016105c2565b6001600160a01b03838116600081815260016020908152604080832094871680845294825291829020805460ff191686151590811790915591519182527f17307eab39ab6107e8899845ad3d59bd9653f200f220920489ca2b5937696c31910160405180910390a3505050565b6001600160a01b0384166124195760405162461bcd60e51b81526004016105c29061341a565b3360006124258561269b565b905060006124328561269b565b905061244283898985858961252b565b6000868152602081815260408083206001600160a01b038c168452909152902054858110156124835760405162461bcd60e51b81526004016105c29061345f565b6000878152602081815260408083206001600160a01b038d8116855292528083208985039055908a168252812080548892906124c090849061312a565b909155505060408051888152602081018890526001600160a01b03808b16928c821692918816917fc3d58168c5ae7397731d063d5bbf3d657854427343f4c083240f7aacaa2d0f62910160405180910390a4612520848a8a8a8a8a6126e6565b505050505050505050565b611dc6565b6001600160a01b0384163b15611dc65760405163bc197c8160e01b81526001600160a01b0385169063bc197c81906125749089908990889088908890600401613584565b602060405180830381600087803b15801561258e57600080fd5b505af19250505080156125be575060408051601f3d908101601f191682019092526125bb918101906135e2565b60015b61266b576125ca6135ff565b806308c379a0141561260457506125df61361b565b806125ea5750612606565b8060405162461bcd60e51b81526004016105c29190612b14565b505b60405162461bcd60e51b815260206004820152603460248201527f455243313135353a207472616e7366657220746f206e6f6e20455243313135356044820152732932b1b2b4bb32b91034b6b83632b6b2b73a32b960611b60648201526084016105c2565b6001600160e01b0319811663bc197c8160e01b14611f6e5760405162461bcd60e51b81526004016105c2906136a4565b604080516001808252818301909252606091600091906020808301908036833701905050905082816000815181106126d5576126d561309e565b602090810291909101015292915050565b6001600160a01b0384163b15611dc65760405163f23a6e6160e01b81526001600160a01b0385169063f23a6e619061272a90899089908890889088906004016136ec565b602060405180830381600087803b15801561274457600080fd5b505af1925050508015612774575060408051601f3d908101601f19168201909252612771918101906135e2565b60015b612780576125ca6135ff565b6001600160e01b0319811663f23a6e6160e01b14611f6e5760405162461bcd60e51b81526004016105c2906136a4565b82805482825590600052602060002090601f016020900481019282156128545791602002820160005b8382111561282557835183826101000a81548160ff0219169083600381111561280457612804612b27565b021790555092602001926001016020816000010492830192600103026127d9565b80156128525782816101000a81549060ff0219169055600101602081600001049283019260010302612825565b505b506128609291506128d8565b5090565b82805461287090613731565b90600052602060002090601f0160209004810192826128925760008555612854565b82601f106128ab57805160ff1916838001178555612854565b82800160010185558215612854579182015b828111156128545782518255916020019190600101906128bd565b5b8082111561286057600081556001016128d9565b80356001600160a01b038116811461290457600080fd5b919050565b6000806040838503121561291c57600080fd5b612925836128ed565b946020939093013593505050565b60006020828403121561294557600080fd5b61294e826128ed565b9392505050565b6001600160e01b03198116811461065557600080fd5b60006020828403121561297d57600080fd5b813561294e81612955565b634e487b7160e01b600052604160045260246000fd5b601f8201601f191681016001600160401b03811182821017156129c3576129c3612988565b6040525050565b60006001600160401b038311156129e3576129e3612988565b6040516129fa601f8501601f19166020018261299e565b809150838152848484011115612a0f57600080fd5b83836020830137600060208583010152509392505050565b600060208284031215612a3957600080fd5b81356001600160401b03811115612a4f57600080fd5b8201601f81018413612a6057600080fd5b611c1c848235602084016129ca565b60008060408385031215612a8257600080fd5b82359150602083013560048110612a9857600080fd5b809150509250929050565b600060208284031215612ab557600080fd5b5035919050565b60005b83811015612ad7578181015183820152602001612abf565b838111156122295750506000910152565b60008151808452612b00816020860160208601612abc565b601f01601f19169290920160200192915050565b60208152600061294e6020830184612ae8565b634e487b7160e01b600052602160045260246000fd5b60008151808452602080850194508084016000805b84811015612b8b5782516004808210612b7857634e487b7160e01b845260218152602484fd5b5088529683019691830191600101612b52565b50959695505050505050565b60006020808301818452808551808352604092508286019150828160051b87010184880160005b83811015612c8a57603f198984030185528151805184528781015160ff908116898601528782015181168886015260608083015182169086015260808083015182169086015260a08083015182169086015260c08083015182169086015260e08083015182169086015261010080830151909116908501526101208082015115159085015261014080820151908501526101608082015190850152610180908101516101a091850182905290612c7681860183612b3d565b968901969450505090860190600101612bbe565b509098975050505050505050565b60006001600160401b03821115612cb157612cb1612988565b5060051b60200190565b600082601f830112612ccc57600080fd5b81356020612cd982612c98565b604051612ce6828261299e565b83815260059390931b8501820192828101915086841115612d0657600080fd5b8286015b84811015612d215780358352918301918301612d0a565b509695505050505050565b600082601f830112612d3d57600080fd5b61294e838335602085016129ca565b600080600080600060a08688031215612d6457600080fd5b612d6d866128ed565b9450612d7b602087016128ed565b935060408601356001600160401b0380821115612d9757600080fd5b612da389838a01612cbb565b94506060880135915080821115612db957600080fd5b612dc589838a01612cbb565b93506080880135915080821115612ddb57600080fd5b50612de888828901612d2c565b9150509295509295909350565b60008060408385031215612e0857600080fd5b82356001600160401b0380821115612e1f57600080fd5b818501915085601f830112612e3357600080fd5b81356020612e4082612c98565b604051612e4d828261299e565b83815260059390931b8501820192828101915089841115612e6d57600080fd5b948201945b83861015612e9257612e83866128ed565b82529482019490820190612e72565b96505086013592505080821115612ea857600080fd5b50612eb585828601612cbb565b9150509250929050565b600081518084526020808501945080840160005b83811015612eef57815187529582019590820190600101612ed3565b509495945050505050565b60208152600061294e6020830184612ebf565b600080600060608486031215612f2257600080fd5b612f2b846128ed565b925060208401356001600160401b0380821115612f4757600080fd5b612f5387838801612cbb565b93506040860135915080821115612f6957600080fd5b50612f7686828701612cbb565b9150509250925092565b600060208284031215612f9257600080fd5b813560ff8116811461294e57600080fd5b60008060408385031215612fb657600080fd5b612fbf836128ed565b915060208301358015158114612a9857600080fd5b60008060408385031215612fe757600080fd5b612ff0836128ed565b9150612ffe602084016128ed565b90509250929050565b600080600080600060a0868803121561301f57600080fd5b613028866128ed565b9450613036602087016128ed565b9350604086013592506060860135915060808601356001600160401b0381111561305f57600080fd5b612de888828901612d2c565b60008060006060848603121561308057600080fd5b613089846128ed565b95602085013595506040909401359392505050565b634e487b7160e01b600052603260045260246000fd5b634e487b7160e01b600052601160045260246000fd5b600060ff821660ff8114156130e1576130e16130b4565b60010192915050565b60006000198214156130fe576130fe6130b4565b5060010190565b600060ff821660ff84168060ff03821115613122576131226130b4565b019392505050565b6000821982111561313d5761313d6130b4565b500190565b7f68747470733a2f2f697066732e696f2f697066732f626166796265696278796881527f646e653478337571626c6c6a6b6c3261657478766c64747062346c637473746a6020820152707165323279723737676e726e6c6169612f60781b6040820152600082516131ba816051850160208701612abc565b64173539b7b760d91b6051939091019283015250605601919050565b6000828210156131e8576131e86130b4565b500390565b600181815b8085111561322857816000190482111561320e5761320e6130b4565b8085161561321b57918102915b93841c93908002906131f2565b509250929050565b60008261323f575060016105ee565b8161324c575060006105ee565b8160018114613262576002811461326c57613288565b60019150506105ee565b60ff84111561327d5761327d6130b4565b50506001821b6105ee565b5060208310610133831016604e8410600b84101617156132ab575081810a6105ee565b6132b583836131ed565b80600019048211156132c9576132c96130b4565b029392505050565b600061294e8383613230565b60008160001904831182151516156132f7576132f76130b4565b500290565b6020808252602f908201527f455243313135353a2063616c6c6572206973206e6f7420746f6b656e206f776e60408201526e195c881b9bdc88185c1c1c9bdd9959608a1b606082015260800190565b600060ff821660ff841680821015613365576133656130b4565b90039392505050565b600061ffff80831681851680830382111561338b5761338b6130b4565b01949350505050565b634e487b7160e01b600052601260045260246000fd5b6000826133b9576133b9613394565b500490565b6000826133cd576133cd613394565b500690565b60208082526028908201527f455243313135353a2069647320616e6420616d6f756e7473206c656e677468206040820152670dad2e6dac2e8c6d60c31b606082015260800190565b60208082526025908201527f455243313135353a207472616e7366657220746f20746865207a65726f206164604082015264647265737360d81b606082015260800190565b6020808252602a908201527f455243313135353a20696e73756666696369656e742062616c616e636520666f60408201526939103a3930b739b332b960b11b606082015260800190565b6040815260006134bc6040830185612ebf565b82810360208401526134ce8185612ebf565b95945050505050565b600083516134e9818460208801612abc565b83519083019061338b818360208801612abc565b60208082526023908201527f455243313135353a206275726e2066726f6d20746865207a65726f206164647260408201526265737360e81b606082015260800190565b60208082526024908201527f455243313135353a206275726e20616d6f756e7420657863656564732062616c604082015263616e636560e01b606082015260800190565b6001600160a01b0386811682528516602082015260a0604082018190526000906135b090830186612ebf565b82810360608401526135c28186612ebf565b905082810360808401526135d68185612ae8565b98975050505050505050565b6000602082840312156135f457600080fd5b815161294e81612955565b600060033d11156136185760046000803e5060005160e01c5b90565b600060443d10156136295790565b6040516003193d81016004833e81513d6001600160401b03816024840111818411171561365857505050505090565b82850191508151818111156136705750505050505090565b843d870101602082850101111561368a5750505050505090565b6136996020828601018761299e565b509095945050505050565b60208082526028908201527f455243313135353a204552433131353552656365697665722072656a656374656040820152676420746f6b656e7360c01b606082015260800190565b6001600160a01b03868116825285166020820152604081018490526060810183905260a06080820181905260009061372690830184612ae8565b979650505050505050565b600181811c9082168061374557607f821691505b6020821081141561376657634e487b7160e01b600052602260045260246000fd5b5091905056fea2646970667358221220c8cb81cffea22abb4612b76d1e60aeba991eb947284f8e5d58979bd471ecebb564736f6c6343000809003368747470733a2f2f6261667962656962787968646e653478337571626c6c6a6b6c3261657478766c64747062346c637473746a7165323279723737676e726e6c6169612e697066732e6e667473746f726167652e6c696e6b2f7b69647d2e6a736f6e",
  "linkReferences": {},
  "deployedLinkReferences": {}
}