{
  "_format": "hh-sol-artifact-1",
  "contractName": "SpaceRanger",
  "sourceName": "contracts/SpaceRanger.sol",
  "abi": [
    {
      "inputs": [],
      "stateMutability": "nonpayable",
      "type": "constructor"
    },
    {
      "anonymous": false,
      "inputs": [
        {
          "indexed": true,
          "internalType": "address",
          "name": "account",
          "type": "address"
        },
        {
          "indexed": true,
          "internalType": "address",
          "name": "operator",
          "type": "address"
        },
        {
          "indexed": false,
          "internalType": "bool",
          "name": "approved",
          "type": "bool"
        }
      ],
      "name": "ApprovalForAll",
      "type": "event"
    },
    {
      "anonymous": false,
      "inputs": [
        {
          "indexed": true,
          "internalType": "address",
          "name": "previousOwner",
          "type": "address"
        },
        {
          "indexed": true,
          "internalType": "address",
          "name": "newOwner",
          "type": "address"
        }
      ],
      "name": "OwnershipTransferred",
      "type": "event"
    },
    {
      "anonymous": false,
      "inputs": [
        {
          "indexed": true,
          "internalType": "address",
          "name": "operator",
          "type": "address"
        },
        {
          "indexed": true,
          "internalType": "address",
          "name": "from",
          "type": "address"
        },
        {
          "indexed": true,
          "internalType": "address",
          "name": "to",
          "type": "address"
        },
        {
          "indexed": false,
          "internalType": "uint256[]",
          "name": "ids",
          "type": "uint256[]"
        },
        {
          "indexed": false,
          "internalType": "uint256[]",
          "name": "values",
          "type": "uint256[]"
        }
      ],
      "name": "TransferBatch",
      "type": "event"
    },
    {
      "anonymous": false,
      "inputs": [
        {
          "indexed": true,
          "internalType": "address",
          "name": "operator",
          "type": "address"
        },
        {
          "indexed": true,
          "internalType": "address",
          "name": "from",
          "type": "address"
        },
        {
          "indexed": true,
          "internalType": "address",
          "name": "to",
          "type": "address"
        },
        {
          "indexed": false,
          "internalType": "uint256",
          "name": "id",
          "type": "uint256"
        },
        {
          "indexed": false,
          "internalType": "uint256",
          "name": "value",
          "type": "uint256"
        }
      ],
      "name": "TransferSingle",
      "type": "event"
    },
    {
      "anonymous": false,
      "inputs": [
        {
          "indexed": false,
          "internalType": "string",
          "name": "value",
          "type": "string"
        },
        {
          "indexed": true,
          "internalType": "uint256",
          "name": "id",
          "type": "uint256"
        }
      ],
      "name": "URI",
      "type": "event"
    },
    {
      "inputs": [],
      "name": "SHIPS_TYPE_SUPPLY",
      "outputs": [
        {
          "internalType": "uint256",
          "name": "",
          "type": "uint256"
        }
      ],
      "stateMutability": "view",
      "type": "function"
    },
    {
      "inputs": [
        {
          "internalType": "address",
          "name": "account",
          "type": "address"
        },
        {
          "internalType": "uint256",
          "name": "id",
          "type": "uint256"
        }
      ],
      "name": "balanceOf",
      "outputs": [
        {
          "internalType": "uint256",
          "name": "",
          "type": "uint256"
        }
      ],
      "stateMutability": "view",
      "type": "function"
    },
    {
      "inputs": [
        {
          "internalType": "address[]",
          "name": "accounts",
          "type": "address[]"
        },
        {
          "internalType": "uint256[]",
          "name": "ids",
          "type": "uint256[]"
        }
      ],
      "name": "balanceOfBatch",
      "outputs": [
        {
          "internalType": "uint256[]",
          "name": "",
          "type": "uint256[]"
        }
      ],
      "stateMutability": "view",
      "type": "function"
    },
    {
      "inputs": [
        {
          "internalType": "address",
          "name": "account",
          "type": "address"
        },
        {
          "internalType": "uint256",
          "name": "id",
          "type": "uint256"
        },
        {
          "internalType": "uint256",
          "name": "value",
          "type": "uint256"
        }
      ],
      "name": "burn",
      "outputs": [],
      "stateMutability": "nonpayable",
      "type": "function"
    },
    {
      "inputs": [
        {
          "internalType": "address",
          "name": "account",
          "type": "address"
        },
        {
          "internalType": "uint256[]",
          "name": "ids",
          "type": "uint256[]"
        },
        {
          "internalType": "uint256[]",
          "name": "values",
          "type": "uint256[]"
        }
      ],
      "name": "burnBatch",
      "outputs": [],
      "stateMutability": "nonpayable",
      "type": "function"
    },
    {
      "inputs": [
        {
          "internalType": "address",
          "name": "_owner",
          "type": "address"
        }
      ],
      "name": "getUserShips",
      "outputs": [
        {
          "components": [
            {
              "internalType": "uint256",
              "name": "id",
              "type": "uint256"
            },
            {
              "internalType": "uint8",
              "name": "health",
              "type": "uint8"
            },
            {
              "internalType": "uint8",
              "name": "attack",
              "type": "uint8"
            },
            {
              "internalType": "uint8",
              "name": "weapons",
              "type": "uint8"
            },
            {
              "internalType": "uint8",
              "name": "speed",
              "type": "uint8"
            },
            {
              "internalType": "uint8",
              "name": "level",
              "type": "uint8"
            },
            {
              "internalType": "uint8",
              "name": "currentEnergy",
              "type": "uint8"
            },
            {
              "internalType": "uint8",
              "name": "maxEnergy",
              "type": "uint8"
            },
            {
              "internalType": "uint8",
              "name": "shipType",
              "type": "uint8"
            },
            {
              "internalType": "bool",
              "name": "onSale",
              "type": "bool"
            },
            {
              "internalType": "uint256",
              "name": "salePrice",
              "type": "uint256"
            },
            {
              "internalType": "uint256",
              "name": "totalBattles",
              "type": "uint256"
            },
            {
              "internalType": "enum SpaceRanger.ShipUpgradeType[]",
              "name": "upgrades",
              "type": "uint8[]"
            }
          ],
          "internalType": "struct SpaceRanger.Ship[]",
          "name": "",
          "type": "tuple[]"
        }
      ],
      "stateMutability": "view",
      "type": "function"
    },
    {
      "inputs": [
        {
          "internalType": "address",
          "name": "account",
          "type": "address"
        },
        {
          "internalType": "address",
          "name": "operator",
          "type": "address"
        }
      ],
      "name": "isApprovedForAll",
      "outputs": [
        {
          "internalType": "bool",
          "name": "",
          "type": "bool"
        }
      ],
      "stateMutability": "view",
      "type": "function"
    },
    {
      "inputs": [
        {
          "internalType": "address",
          "name": "",
          "type": "address"
        }
      ],
      "name": "lastFlyTime",
      "outputs": [
        {
          "internalType": "uint256",
          "name": "",
          "type": "uint256"
        }
      ],
      "stateMutability": "view",
      "type": "function"
    },
    {
      "inputs": [
        {
          "internalType": "uint8",
          "name": "_shipTypeId",
          "type": "uint8"
        }
      ],
      "name": "mint",
      "outputs": [],
      "stateMutability": "nonpayable",
      "type": "function"
    },
    {
      "inputs": [
        {
          "internalType": "uint256",
          "name": "",
          "type": "uint256"
        }
      ],
      "name": "mintedShips",
      "outputs": [
        {
          "internalType": "uint16",
          "name": "",
          "type": "uint16"
        }
      ],
      "stateMutability": "view",
      "type": "function"
    },
    {
      "inputs": [],
      "name": "owner",
      "outputs": [
        {
          "internalType": "address",
          "name": "",
          "type": "address"
        }
      ],
      "stateMutability": "view",
      "type": "function"
    },
    {
      "inputs": [],
      "name": "renounceOwnership",
      "outputs": [],
      "stateMutability": "nonpayable",
      "type": "function"
    },
    {
      "inputs": [
        {
          "internalType": "address",
          "name": "from",
          "type": "address"
        },
        {
          "internalType": "address",
          "name": "to",
          "type": "address"
        },
        {
          "internalType": "uint256[]",
          "name": "ids",
          "type": "uint256[]"
        },
        {
          "internalType": "uint256[]",
          "name": "amounts",
          "type": "uint256[]"
        },
        {
          "internalType": "bytes",
          "name": "data",
          "type": "bytes"
        }
      ],
      "name": "safeBatchTransferFrom",
      "outputs": [],
      "stateMutability": "nonpayable",
      "type": "function"
    },
    {
      "inputs": [
        {
          "internalType": "address",
          "name": "from",
          "type": "address"
        },
        {
          "internalType": "address",
          "name": "to",
          "type": "address"
        },
        {
          "internalType": "uint256",
          "name": "id",
          "type": "uint256"
        },
        {
          "internalType": "uint256",
          "name": "amount",
          "type": "uint256"
        },
        {
          "internalType": "bytes",
          "name": "data",
          "type": "bytes"
        }
      ],
      "name": "safeTransferFrom",
      "outputs": [],
      "stateMutability": "nonpayable",
      "type": "function"
    },
    {
      "inputs": [
        {
          "internalType": "address",
          "name": "operator",
          "type": "address"
        },
        {
          "internalType": "bool",
          "name": "approved",
          "type": "bool"
        }
      ],
      "name": "setApprovalForAll",
      "outputs": [],
      "stateMutability": "nonpayable",
      "type": "function"
    },
    {
      "inputs": [
        {
          "internalType": "string",
          "name": "_uri",
          "type": "string"
        }
      ],
      "name": "setURI",
      "outputs": [],
      "stateMutability": "nonpayable",
      "type": "function"
    },
    {
      "inputs": [
        {
          "internalType": "uint256",
          "name": "",
          "type": "uint256"
        }
      ],
      "name": "ships",
      "outputs": [
        {
          "internalType": "uint256",
          "name": "id",
          "type": "uint256"
        },
        {
          "internalType": "uint8",
          "name": "health",
          "type": "uint8"
        },
        {
          "internalType": "uint8",
          "name": "attack",
          "type": "uint8"
        },
        {
          "internalType": "uint8",
          "name": "weapons",
          "type": "uint8"
        },
        {
          "internalType": "uint8",
          "name": "speed",
          "type": "uint8"
        },
        {
          "internalType": "uint8",
          "name": "level",
          "type": "uint8"
        },
        {
          "internalType": "uint8",
          "name": "currentEnergy",
          "type": "uint8"
        },
        {
          "internalType": "uint8",
          "name": "maxEnergy",
          "type": "uint8"
        },
        {
          "internalType": "uint8",
          "name": "shipType",
          "type": "uint8"
        },
        {
          "internalType": "bool",
          "name": "onSale",
          "type": "bool"
        },
        {
          "internalType": "uint256",
          "name": "salePrice",
          "type": "uint256"
        },
        {
          "internalType": "uint256",
          "name": "totalBattles",
          "type": "uint256"
        }
      ],
      "stateMutability": "view",
      "type": "function"
    },
    {
      "inputs": [
        {
          "internalType": "string",
          "name": "numString",
          "type": "string"
        }
      ],
      "name": "stringToUint",
      "outputs": [
        {
          "internalType": "uint256",
          "name": "",
          "type": "uint256"
        }
      ],
      "stateMutability": "pure",
      "type": "function"
    },
    {
      "inputs": [
        {
          "internalType": "bytes4",
          "name": "interfaceId",
          "type": "bytes4"
        }
      ],
      "name": "supportsInterface",
      "outputs": [
        {
          "internalType": "bool",
          "name": "",
          "type": "bool"
        }
      ],
      "stateMutability": "view",
      "type": "function"
    },
    {
      "inputs": [],
      "name": "totalMintedShips",
      "outputs": [
        {
          "internalType": "uint256",
          "name": "",
          "type": "uint256"
        }
      ],
      "stateMutability": "view",
      "type": "function"
    },
    {
      "inputs": [
        {
          "internalType": "address",
          "name": "newOwner",
          "type": "address"
        }
      ],
      "name": "transferOwnership",
      "outputs": [],
      "stateMutability": "nonpayable",
      "type": "function"
    },
    {
      "inputs": [
        {
          "internalType": "uint256",
          "name": "_id",
          "type": "uint256"
        },
        {
          "internalType": "enum SpaceRanger.ShipUpgradeType",
          "name": "_upgradeType",
          "type": "uint8"
        }
      ],
      "name": "upgradeShipCharacteristics",
      "outputs": [],
      "stateMutability": "nonpayable",
      "type": "function"
    },
    {
      "inputs": [
        {
          "internalType": "uint256",
          "name": "_id",
          "type": "uint256"
        }
      ],
      "name": "upgradeShipLevel",
      "outputs": [],
      "stateMutability": "nonpayable",
      "type": "function"
    },
    {
      "inputs": [
        {
          "internalType": "uint256",
          "name": "_tokenId",
          "type": "uint256"
        }
      ],
      "name": "uri",
      "outputs": [
        {
          "internalType": "string",
          "name": "",
          "type": "string"
        }
      ],
      "stateMutability": "pure",
      "type": "function"
    },
    {
      "inputs": [
        {
          "internalType": "address",
          "name": "",
          "type": "address"
        }
      ],
      "name": "userBalance",
      "outputs": [
        {
          "internalType": "uint256",
          "name": "",
          "type": "uint256"
        }
      ],
      "stateMutability": "view",
      "type": "function"
    },
    {
      "inputs": [
        {
          "internalType": "address",
          "name": "",
          "type": "address"
        }
      ],
      "name": "userLevel",
      "outputs": [
        {
          "internalType": "uint256",
          "name": "",
          "type": "uint256"
        }
      ],
      "stateMutability": "view",
      "type": "function"
    },
    {
      "inputs": [
        {
          "internalType": "address",
          "name": "",
          "type": "address"
        },
        {
          "internalType": "uint256",
          "name": "",
          "type": "uint256"
        }
      ],
      "name": "userShips",
      "outputs": [
        {
          "internalType": "uint256",
          "name": "",
          "type": "uint256"
        }
      ],
      "stateMutability": "view",
      "type": "function"
    }
  ],
  "bytecode": "0x6101206040526000608081815260a082905260c082905260e08290526101009190915262000032906004906005620004c5565b5060006005553480156200004557600080fd5b506040518060a001604052806062815260200162003eda606291396200006b81620000ca565b506200007733620000e3565b600b5b60338160ff1611620000c357620000ae308260ff166103e8604051806020016040528060008152506200013560201b60201c565b620000bb600a826200061e565b90506200007a565b506200087a565b8051620000df90600290602084019062000574565b5050565b600380546001600160a01b038381166001600160a01b0319831681179093556040519116919082907f8be0079c531659141344cd1fd0a4f28419497f9722a3daafe3b4186f6b6457e090600090a35050565b6001600160a01b0384166200019b5760405162461bcd60e51b815260206004820152602160248201527f455243313135353a206d696e7420746f20746865207a65726f206164647265736044820152607360f81b60648201526084015b60405180910390fd5b336000620001a98562000268565b90506000620001b88562000268565b9050620001cb83600089858589620002b6565b6000868152602081815260408083206001600160a01b038b16845290915281208054879290620001fd90849062000646565b909155505060408051878152602081018790526001600160a01b03808a1692600092918716917fc3d58168c5ae7397731d063d5bbf3d657854427343f4c083240f7aacaa2d0f62910160405180910390a46200025f83600089898989620002d9565b50505050505050565b60408051600180825281830190925260609160009190602080830190803683370190505090508281600081518110620002a557620002a562000661565b602090810291909101015292915050565b620002d1868686868686620002d160201b620019511760201c565b505050505050565b620002f8846001600160a01b0316620004b660201b620019591760201c565b15620002d15760405163f23a6e6160e01b81526001600160a01b0385169063f23a6e6190620003349089908990889088908890600401620006c7565b602060405180830381600087803b1580156200034f57600080fd5b505af192505050801562000382575060408051601f3d908101601f191682019092526200037f918101906200070e565b60015b62000443576200039162000741565b806308c379a01415620003d25750620003a962000799565b80620003b65750620003d4565b8060405162461bcd60e51b815260040162000192919062000828565b505b60405162461bcd60e51b815260206004820152603460248201527f455243313135353a207472616e7366657220746f206e6f6e204552433131353560448201527f526563656976657220696d706c656d656e746572000000000000000000000000606482015260840162000192565b6001600160e01b0319811663f23a6e6160e01b146200025f5760405162461bcd60e51b815260206004820152602860248201527f455243313135353a204552433131353552656365697665722072656a656374656044820152676420746f6b656e7360c01b606482015260840162000192565b6001600160a01b03163b151590565b82805482825590600052602060002090600f01601090048101928215620005625791602002820160005b838211156200053057835183826101000a81548161ffff021916908360ff1602179055509260200192600201602081600101049283019260010302620004ef565b8015620005605782816101000a81549061ffff021916905560020160208160010104928301926001030262000530565b505b5062000570929150620005f1565b5090565b82805462000582906200083d565b90600052602060002090601f016020900481019282620005a6576000855562000562565b82601f10620005c157805160ff191683800117855562000562565b8280016001018555821562000562579182015b8281111562000562578251825591602001919060010190620005d4565b5b80821115620005705760008155600101620005f2565b634e487b7160e01b600052601160045260246000fd5b600060ff821660ff84168060ff038211156200063e576200063e62000608565b019392505050565b600082198211156200065c576200065c62000608565b500190565b634e487b7160e01b600052603260045260246000fd5b6000815180845260005b818110156200069f5760208185018101518683018201520162000681565b81811115620006b2576000602083870101525b50601f01601f19169290920160200192915050565b6001600160a01b03868116825285166020820152604081018490526060810183905260a060808201819052600090620007039083018462000677565b979650505050505050565b6000602082840312156200072157600080fd5b81516001600160e01b0319811681146200073a57600080fd5b9392505050565b600060033d11156200075b5760046000803e5060005160e01c5b90565b601f8201601f191681016001600160401b03811182821017156200079257634e487b7160e01b600052604160045260246000fd5b6040525050565b600060443d1015620007a85790565b6040516003193d81016004833e81513d6001600160401b038083116024840183101715620007d857505050505090565b8285019150815181811115620007f15750505050505090565b843d87010160208285010111156200080c5750505050505090565b6200081d602082860101876200075e565b509095945050505050565b6020815260006200073a602083018462000677565b600181811c908216806200085257607f821691505b602082108114156200087457634e487b7160e01b600052602260045260246000fd5b50919050565b613650806200088a6000396000f3fe608060405234801561001057600080fd5b50600436106101a85760003560e01c80634e1273f4116100f9578063a22cb46511610097578063e985e9c511610071578063e985e9c5146104b8578063f242432a146104f4578063f2fde38b14610507578063f5298aca1461051a57600080fd5b8063a22cb46514610489578063b062d9b51461049c578063baf45424146104a557600080fd5b80636ecd2306116100d35780636ecd23061461042d578063715018a61461044057806378655c09146104485780638da5cb5b1461046e57600080fd5b80634e1273f4146103e75780635b3fdb6a146104075780636b20c4541461041a57600080fd5b80631795e83c11610166578063280e31cc11610140578063280e31cc146102b15780632eb2c2d6146102d15780633779a025146102e45780634d4e8dfa146102ed57600080fd5b80631795e83c1461025e57806317cb49351461027e5780631bd951551461029e57600080fd5b8062fdd58e146101ad5780630103c92b146101d357806301ffc9a7146101f357806302fe530514610216578063039f82f81461022b5780630e89341c1461023e575b600080fd5b6101c06101bb3660046127b7565b61052d565b6040519081526020015b60405180910390f35b6101c06101e13660046127e1565b60066020526000908152604090205481565b610206610201366004612819565b6105c6565b60405190151581526020016101ca565b6102296102243660046128d5565b610616565b005b61022961023936600461291d565b61062a565b61025161024c366004612951565b610a65565b6040516101ca91906129c2565b6101c061026c3660046127e1565b600a6020526000908152604090205481565b61029161028c3660046127e1565b610a96565b6040516101ca9190612a45565b6101c06102ac3660046128d5565b610d3b565b6101c06102bf3660046127e1565b60076020526000908152604090205481565b6102296102df366004612bfa565b610ddf565b6101c06103e881565b61037b6102fb366004612951565b6008602052600090815260409020805460018201546002830154600390930154919260ff80831693610100840482169362010000810483169363010000008204841693640100000000830481169365010000000000840482169366010000000000008104831693600160381b8204841693600160401b909204909116918c565b604080519c8d5260ff9b8c1660208e0152998b16998c019990995296891660608b015294881660808a015292871660a089015290861660c0880152851660e0870152909316610100850152911515610120840152610140830191909152610160820152610180016101ca565b6103fa6103f5366004612ca3565b610e2b565b6040516101ca9190612da8565b610229610415366004612951565b610f54565b610229610428366004612dbb565b611294565b61022961043b366004612e2e565b6112dc565b6102296117c7565b61045b610456366004612951565b6117db565b60405161ffff90911681526020016101ca565b6003546040516001600160a01b0390911681526020016101ca565b610229610497366004612e51565b611813565b6101c060055481565b6101c06104b33660046127b7565b611822565b6102066104c6366004612e82565b6001600160a01b03918216600090815260016020908152604080832093909416825291909152205460ff1690565b610229610502366004612eb5565b611853565b6102296105153660046127e1565b611898565b610229610528366004612f19565b61190e565b60006001600160a01b03831661059d5760405162461bcd60e51b815260206004820152602a60248201527f455243313135353a2061646472657373207a65726f206973206e6f742061207660448201526930b634b21037bbb732b960b11b60648201526084015b60405180910390fd5b506000818152602081815260408083206001600160a01b03861684529091529020545b92915050565b60006001600160e01b03198216636cdb3d1360e11b14806105f757506001600160e01b031982166303a24d0760e21b145b806105c057506301ffc9a760e01b6001600160e01b03198316146105c0565b61061e611968565b610627816119c2565b50565b60008281526008602052604090208054831461067e5760405162461bcd60e51b815260206004820152601360248201527214dc1858d954da1a5c081b9bdd08199bdd5b99606a1b6044820152606401610594565b60048101546006116106e25760405162461bcd60e51b815260206004820152602760248201527f43616e2774207570677261646520736869702c2073706f7473206c696d6974206044820152661c995858da195960ca1b6064820152608401610594565b6000805b600483015481101561076e57836003811115610704576107046129d5565b83600401828154811061071957610719612f4c565b90600052602060002090602091828204019190069054906101000a900460ff16600381111561074a5761074a6129d5565b141561075e578161075a81612f78565b9250505b61076781612f98565b90506106e6565b506000836003811115610783576107836129d5565b14156108255760038160ff16106107ed5760405162461bcd60e51b815260206004820152602860248201527f43616e277420757067726164652c2061726d6f722073706f7473206c696d6974604482015267081c995858da195960c21b6064820152608401610594565b6001820180546002919060009061080890849060ff16612fb3565b92506101000a81548160ff021916908360ff160217905550610a17565b6001836003811115610839576108396129d5565b14156108c15760ff8116156108a25760405162461bcd60e51b815260206004820152602960248201527f43616e277420757067726164652c20656e67696e652073706f7473206c696d696044820152681d081c995858da195960ba1b6064820152608401610594565b600182810180546003906108089084906301000000900460ff16612fb3565b60038360038111156108d5576108d56129d5565b141561095e5760028160ff16106109405760405162461bcd60e51b815260206004820152602960248201527f43616e277420757067726164652c20776561706f6e2073706f7473206c696d696044820152681d081c995858da195960ba1b6064820152608401610594565b6001828101805460029290610808908490610100900460ff16612fb3565b6002836003811115610972576109726129d5565b1415610a175760028160ff16106109dd5760405162461bcd60e51b815260206004820152602960248201527f43616e277420757067726164652c20656e657267792073706f7473206c696d696044820152681d081c995858da195960ba1b6064820152608401610594565b60028260010160068282829054906101000a900460ff166109fe9190612fb3565b92506101000a81548160ff021916908360ff1602179055505b600482018054600181018255600091825260209182902091810490910180548592601f166101000a60ff81021990911690836003811115610a5a57610a5a6129d5565b021790555050505050565b6060610a70826119d5565b604051602001610a809190612fd8565b6040516020818303038152906040529050919050565b6001600160a01b038116600090815260096020526040812054606091906001600160401b03811115610aca57610aca612836565b604051908082528060200260200182016040528015610b6357816020015b604080516101a0810182526000808252602080830182905292820181905260608083018290526080830182905260a0830182905260c0830182905260e083018290526101008301829052610120830182905261014083018290526101608301919091526101808201528252600019909201910181610ae85790505b50905060005b6001600160a01b038416600090815260096020526040902054811015610d34576001600160a01b03841660009081526009602052604081208054600892919084908110610bb857610bb8612f4c565b60009182526020808320909101548352828101939093526040918201902081516101a08101835281548152600182015460ff808216838701526101008083048216848701526201000083048216606085015263010000008304821660808501526401000000008304821660a0850152650100000000008304821660c085015266010000000000008304821660e0850152600160381b8304821690840152600160401b9091041615156101208201526002820154610140820152600382015461016082015260048201805484518187028101870190955280855291949293610180860193909290830182828015610cfd57602002820191906000526020600020906000905b82829054906101000a900460ff166003811115610cdb57610cdb6129d5565b815260206001928301818104948501949093039092029101808411610cbc5790505b505050505081525050828281518110610d1857610d18612f4c565b602002602001018190525080610d2d90612f98565b9050610b69565b5092915050565b60008082815b8151811015610dd6576000818351610d59919061306c565b90506000838381518110610d6f57610d6f612f4c565b01602001516001600160f81b03198116915060f81c6000610d9160308361306c565b9050610d9e60018561306c565b610da990600a613167565b610db39082613173565b610dbd9088613192565b9650505050508080610dce90612f98565b915050610d41565b50909392505050565b6001600160a01b038516331480610dfb5750610dfb85336104c6565b610e175760405162461bcd60e51b8152600401610594906131aa565b610e248585858585611ada565b5050505050565b60608151835114610e905760405162461bcd60e51b815260206004820152602960248201527f455243313135353a206163636f756e747320616e6420696473206c656e677468604482015268040dad2e6dac2e8c6d60bb1b6064820152608401610594565b600083516001600160401b03811115610eab57610eab612836565b604051908082528060200260200182016040528015610ed4578160200160208202803683370190505b50905060005b8451811015610f4c57610f1f858281518110610ef857610ef8612f4c565b6020026020010151858381518110610f1257610f12612f4c565b602002602001015161052d565b828281518110610f3157610f31612f4c565b6020908102919091010152610f4581612f98565b9050610eda565b509392505050565b6000818152600860209081526040808320338452600983528184208054835181860281018601909452808452919493610fc3939290830182828015610fb857602002820191906000526020600020905b815481526020019060010190808311610fa4575b505050505084611c7c565b915050806110135760405162461bcd60e51b815260206004820152601d60248201527f596f7520646f6e277420686176652074686973205370616365536869700000006044820152606401610594565b6001820154600364010000000090910460ff161061107f5760405162461bcd60e51b815260206004820152602360248201527f596f752063616e277420696e63726561736520537061636553686970206c657660448201526232b61760e91b6064820152608401610594565b60018281015460009164010000000090910460ff1614156111205733600090815260066020526040902054620186a0106110ef5760405162461bcd60e51b81526020600482015260116024820152704e656564206d6f72652062616c616e636560781b6044820152606401610594565b3360009081526006602052604081208054620186a0929061111190849061306c565b90915550600291506111a19050565b336000908152600660205260409020546207a120106111755760405162461bcd60e51b81526020600482015260116024820152704e656564206d6f72652062616c616e636560781b6044820152606401610594565b33600090815260066020526040812080546207a120929061119790849061306c565b9091555060039150505b60018301546000906111de906111c090600160381b900460ff166119d5565b60018601546111d990640100000000900460ff166119d5565b611cdc565b90506111f4336111ed83610d3b565b6001611d08565b600184015460009061121f9061121390600160381b900460ff166119d5565b6111d98560ff166119d5565b90506112453361122e83610d3b565b600160405180602001604052806000815250611e25565b505060018301805468ff00ff0000ffffff001960ff1960ff909416640100000000029390931664ff000000ff1990911617603c1791909116661400000602140017905550600060029091015550565b6001600160a01b0383163314806112b057506112b083336104c6565b6112cc5760405162461bcd60e51b8152600401610594906131aa565b6112d7838383611f3f565b505050565b60045460ff8216106113305760405162461bcd60e51b815260206004820152601860248201527f53706163655368697020646f65736e27742065786973747300000000000000006044820152606401610594565b60008160ff16116113785760405162461bcd60e51b815260206004820152601260248201527115dc9bdb99c814dc1858d954da1a5c08125160721b6044820152606401610594565b33600090815260096020526040902054156113d55760405162461bcd60e51b815260206004820152601a60248201527f596f7520616c72656164792068617665205370616365536869700000000000006044820152606401610594565b60006113e26001836131f9565b90506103e860048260ff16815481106113fd576113fd612f4c565b60009182526020909120601082040154600f9091166002026101000a900461ffff16106114875760405162461bcd60e51b815260206004820152603260248201527f4e6f206d6f7265207368697073206f662074686973206d6f646966696361746960448201527137b71034b71037bab91039ba30ba34b7b71760711b6064820152608401610594565b600060056000815461149890612f98565b9182905550905060006114ba6114b060ff86166119d5565b6111d960016119d5565b90506114e130336114ca84610d3b565b600160405180602001604052806000815250611853565b600160048460ff16815481106114f9576114f9612f4c565b90600052602060002090601091828204019190066002028282829054906101000a900461ffff1661152a919061321c565b92506101000a81548161ffff021916908361ffff1602179055506000806000806115568860ff166120dd565b93509350935093506000604051806101a001604052808881526020018660ff1681526020018560ff1681526020018360ff1681526020018460ff168152602001600160ff168152602001600a60ff168152602001600a60ff1681526020018a60ff168152602001600015158152602001600081526020016000815260200160006001600160401b038111156115ed576115ed612836565b604051908082528060200260200182016040528015611616578160200160208202803683370190505b50815250905080600860008981526020019081526020016000206000820151816000015560208201518160010160006101000a81548160ff021916908360ff16021790555060408201518160010160016101000a81548160ff021916908360ff16021790555060608201518160010160026101000a81548160ff021916908360ff16021790555060808201518160010160036101000a81548160ff021916908360ff16021790555060a08201518160010160046101000a81548160ff021916908360ff16021790555060c08201518160010160056101000a81548160ff021916908360ff16021790555060e08201518160010160066101000a81548160ff021916908360ff1602179055506101008201518160010160076101000a81548160ff021916908360ff1602179055506101208201518160010160086101000a81548160ff0219169083151502179055506101408201518160020155610160820151816003015561018082015181600401908051906020019061179792919061265e565b50503360009081526009602090815260408220805460018101825590835291200197909755505050505050505050565b6117cf611968565b6117d9600061216e565b565b600481815481106117eb57600080fd5b9060005260206000209060109182820401919006600202915054906101000a900461ffff1681565b61181e3383836121c0565b5050565b6009602052816000526040600020818154811061183e57600080fd5b90600052602060002001600091509150505481565b6001600160a01b03851633148061186f575061186f85336104c6565b61188b5760405162461bcd60e51b8152600401610594906131aa565b610e2485858585856122a1565b6118a0611968565b6001600160a01b0381166119055760405162461bcd60e51b815260206004820152602660248201527f4f776e61626c653a206e6577206f776e657220697320746865207a65726f206160448201526564647265737360d01b6064820152608401610594565b6106278161216e565b6001600160a01b03831633148061192a575061192a83336104c6565b6119465760405162461bcd60e51b8152600401610594906131aa565b6112d7838383611d08565b505050505050565b6001600160a01b03163b151590565b6003546001600160a01b031633146117d95760405162461bcd60e51b815260206004820181905260248201527f4f776e61626c653a2063616c6c6572206973206e6f7420746865206f776e65726044820152606401610594565b805161181e906002906020840190612712565b6060816119f95750506040805180820190915260018152600360fc1b602082015290565b8160005b8115611a235780611a0d81612f98565b9150611a1c9050600a83613258565b91506119fd565b6000816001600160401b03811115611a3d57611a3d612836565b6040519080825280601f01601f191660200182016040528015611a67576020820181803683370190505b5090505b8415611ad257611a7c60018361306c565b9150611a89600a8661326c565b611a94906030613192565b60f81b818381518110611aa957611aa9612f4c565b60200101906001600160f81b031916908160001a905350611acb600a86613258565b9450611a6b565b949350505050565b8151835114611afb5760405162461bcd60e51b815260040161059490613280565b6001600160a01b038416611b215760405162461bcd60e51b8152600401610594906132c8565b33611b308187878787876123d9565b60005b8451811015611c16576000858281518110611b5057611b50612f4c565b602002602001015190506000858381518110611b6e57611b6e612f4c565b602090810291909101810151600084815280835260408082206001600160a01b038e168352909352919091205490915081811015611bbe5760405162461bcd60e51b81526004016105949061330d565b6000838152602081815260408083206001600160a01b038e8116855292528083208585039055908b16825281208054849290611bfb908490613192565b9250508190555050505080611c0f90612f98565b9050611b33565b50846001600160a01b0316866001600160a01b0316826001600160a01b03167f4a39dc06d4c0dbc64b70af90fd698a233a518aa5d07e595d983b8c0526c8f7fb8787604051611c66929190613357565b60405180910390a46119518187878787876123de565b81516000908190815b81811015611ccb5784868281518110611ca057611ca0612f4c565b60200260200101511415611cbb57925060019150611cd59050565b611cc481612f98565b9050611c85565b5060008092509250505b9250929050565b60608282604051602001611cf1929190613385565b604051602081830303815290604052905092915050565b6001600160a01b038316611d2e5760405162461bcd60e51b8152600401610594906133ab565b336000611d3a84612549565b90506000611d4784612549565b9050611d67838760008585604051806020016040528060008152506123d9565b6000858152602081815260408083206001600160a01b038a16845290915290205484811015611da85760405162461bcd60e51b8152600401610594906133ee565b6000868152602081815260408083206001600160a01b038b81168086529184528285208a8703905582518b81529384018a90529092908816917fc3d58168c5ae7397731d063d5bbf3d657854427343f4c083240f7aacaa2d0f62910160405180910390a46040805160208101909152600090525b50505050505050565b6001600160a01b038416611e855760405162461bcd60e51b815260206004820152602160248201527f455243313135353a206d696e7420746f20746865207a65726f206164647265736044820152607360f81b6064820152608401610594565b336000611e9185612549565b90506000611e9e85612549565b9050611eaf836000898585896123d9565b6000868152602081815260408083206001600160a01b038b16845290915281208054879290611edf908490613192565b909155505060408051878152602081018790526001600160a01b03808a1692600092918716917fc3d58168c5ae7397731d063d5bbf3d657854427343f4c083240f7aacaa2d0f62910160405180910390a4611e1c83600089898989612594565b6001600160a01b038316611f655760405162461bcd60e51b8152600401610594906133ab565b8051825114611f865760405162461bcd60e51b815260040161059490613280565b6000339050611fa9818560008686604051806020016040528060008152506123d9565b60005b835181101561206e576000848281518110611fc957611fc9612f4c565b602002602001015190506000848381518110611fe757611fe7612f4c565b602090810291909101810151600084815280835260408082206001600160a01b038c1683529093529190912054909150818110156120375760405162461bcd60e51b8152600401610594906133ee565b6000928352602083815260408085206001600160a01b038b168652909152909220910390558061206681612f98565b915050611fac565b5060006001600160a01b0316846001600160a01b0316826001600160a01b03167f4a39dc06d4c0dbc64b70af90fd698a233a518aa5d07e595d983b8c0526c8f7fb86866040516120bf929190613357565b60405180910390a46040805160208101909152600090525b50505050565b60008060008084600b1415612100575060199250600c9150600590506001612167565b846015141561211d5750601a9250600a9150600690506001612167565b84601f141561213a57506015925060079150600490506002612167565b84602914156121575750601a9250600b9150600590506001612167565b5060179250600691506004905060025b9193509193565b600380546001600160a01b038381166001600160a01b0319831681179093556040519116919082907f8be0079c531659141344cd1fd0a4f28419497f9722a3daafe3b4186f6b6457e090600090a35050565b816001600160a01b0316836001600160a01b031614156122345760405162461bcd60e51b815260206004820152602960248201527f455243313135353a2073657474696e6720617070726f76616c20737461747573604482015268103337b91039b2b63360b91b6064820152608401610594565b6001600160a01b03838116600081815260016020908152604080832094871680845294825291829020805460ff191686151590811790915591519182527f17307eab39ab6107e8899845ad3d59bd9653f200f220920489ca2b5937696c31910160405180910390a3505050565b6001600160a01b0384166122c75760405162461bcd60e51b8152600401610594906132c8565b3360006122d385612549565b905060006122e085612549565b90506122f08389898585896123d9565b6000868152602081815260408083206001600160a01b038c168452909152902054858110156123315760405162461bcd60e51b81526004016105949061330d565b6000878152602081815260408083206001600160a01b038d8116855292528083208985039055908a1682528120805488929061236e908490613192565b909155505060408051888152602081018890526001600160a01b03808b16928c821692918816917fc3d58168c5ae7397731d063d5bbf3d657854427343f4c083240f7aacaa2d0f62910160405180910390a46123ce848a8a8a8a8a612594565b505050505050505050565b611951565b6001600160a01b0384163b156119515760405163bc197c8160e01b81526001600160a01b0385169063bc197c81906124229089908990889088908890600401613432565b602060405180830381600087803b15801561243c57600080fd5b505af192505050801561246c575060408051601f3d908101601f1916820190925261246991810190613490565b60015b612519576124786134ad565b806308c379a014156124b2575061248d6134c9565b8061249857506124b4565b8060405162461bcd60e51b815260040161059491906129c2565b505b60405162461bcd60e51b815260206004820152603460248201527f455243313135353a207472616e7366657220746f206e6f6e20455243313135356044820152732932b1b2b4bb32b91034b6b83632b6b2b73a32b960611b6064820152608401610594565b6001600160e01b0319811663bc197c8160e01b14611e1c5760405162461bcd60e51b815260040161059490613552565b6040805160018082528183019092526060916000919060208083019080368337019050509050828160008151811061258357612583612f4c565b602090810291909101015292915050565b6001600160a01b0384163b156119515760405163f23a6e6160e01b81526001600160a01b0385169063f23a6e61906125d8908990899088908890889060040161359a565b602060405180830381600087803b1580156125f257600080fd5b505af1925050508015612622575060408051601f3d908101601f1916820190925261261f91810190613490565b60015b61262e576124786134ad565b6001600160e01b0319811663f23a6e6160e01b14611e1c5760405162461bcd60e51b815260040161059490613552565b82805482825590600052602060002090601f016020900481019282156127025791602002820160005b838211156126d357835183826101000a81548160ff021916908360038111156126b2576126b26129d5565b02179055509260200192600101602081600001049283019260010302612687565b80156127005782816101000a81549060ff02191690556001016020816000010492830192600103026126d3565b505b5061270e929150612786565b5090565b82805461271e906135df565b90600052602060002090601f0160209004810192826127405760008555612702565b82601f1061275957805160ff1916838001178555612702565b82800160010185558215612702579182015b8281111561270257825182559160200191906001019061276b565b5b8082111561270e5760008155600101612787565b80356001600160a01b03811681146127b257600080fd5b919050565b600080604083850312156127ca57600080fd5b6127d38361279b565b946020939093013593505050565b6000602082840312156127f357600080fd5b6127fc8261279b565b9392505050565b6001600160e01b03198116811461062757600080fd5b60006020828403121561282b57600080fd5b81356127fc81612803565b634e487b7160e01b600052604160045260246000fd5b601f8201601f191681016001600160401b038111828210171561287157612871612836565b6040525050565b60006001600160401b0383111561289157612891612836565b6040516128a8601f8501601f19166020018261284c565b8091508381528484840111156128bd57600080fd5b83836020830137600060208583010152509392505050565b6000602082840312156128e757600080fd5b81356001600160401b038111156128fd57600080fd5b8201601f8101841361290e57600080fd5b611ad284823560208401612878565b6000806040838503121561293057600080fd5b8235915060208301356004811061294657600080fd5b809150509250929050565b60006020828403121561296357600080fd5b5035919050565b60005b8381101561298557818101518382015260200161296d565b838111156120d75750506000910152565b600081518084526129ae81602086016020860161296a565b601f01601f19169290920160200192915050565b6020815260006127fc6020830184612996565b634e487b7160e01b600052602160045260246000fd5b60008151808452602080850194508084016000805b84811015612a395782516004808210612a2657634e487b7160e01b845260218152602484fd5b5088529683019691830191600101612a00565b50959695505050505050565b60006020808301818452808551808352604092508286019150828160051b87010184880160005b83811015612b3857603f198984030185528151805184528781015160ff908116898601528782015181168886015260608083015182169086015260808083015182169086015260a08083015182169086015260c08083015182169086015260e08083015182169086015261010080830151909116908501526101208082015115159085015261014080820151908501526101608082015190850152610180908101516101a091850182905290612b24818601836129eb565b968901969450505090860190600101612a6c565b509098975050505050505050565b60006001600160401b03821115612b5f57612b5f612836565b5060051b60200190565b600082601f830112612b7a57600080fd5b81356020612b8782612b46565b604051612b94828261284c565b83815260059390931b8501820192828101915086841115612bb457600080fd5b8286015b84811015612bcf5780358352918301918301612bb8565b509695505050505050565b600082601f830112612beb57600080fd5b6127fc83833560208501612878565b600080600080600060a08688031215612c1257600080fd5b612c1b8661279b565b9450612c296020870161279b565b935060408601356001600160401b0380821115612c4557600080fd5b612c5189838a01612b69565b94506060880135915080821115612c6757600080fd5b612c7389838a01612b69565b93506080880135915080821115612c8957600080fd5b50612c9688828901612bda565b9150509295509295909350565b60008060408385031215612cb657600080fd5b82356001600160401b0380821115612ccd57600080fd5b818501915085601f830112612ce157600080fd5b81356020612cee82612b46565b604051612cfb828261284c565b83815260059390931b8501820192828101915089841115612d1b57600080fd5b948201945b83861015612d4057612d318661279b565b82529482019490820190612d20565b96505086013592505080821115612d5657600080fd5b50612d6385828601612b69565b9150509250929050565b600081518084526020808501945080840160005b83811015612d9d57815187529582019590820190600101612d81565b509495945050505050565b6020815260006127fc6020830184612d6d565b600080600060608486031215612dd057600080fd5b612dd98461279b565b925060208401356001600160401b0380821115612df557600080fd5b612e0187838801612b69565b93506040860135915080821115612e1757600080fd5b50612e2486828701612b69565b9150509250925092565b600060208284031215612e4057600080fd5b813560ff811681146127fc57600080fd5b60008060408385031215612e6457600080fd5b612e6d8361279b565b91506020830135801515811461294657600080fd5b60008060408385031215612e9557600080fd5b612e9e8361279b565b9150612eac6020840161279b565b90509250929050565b600080600080600060a08688031215612ecd57600080fd5b612ed68661279b565b9450612ee46020870161279b565b9350604086013592506060860135915060808601356001600160401b03811115612f0d57600080fd5b612c9688828901612bda565b600080600060608486031215612f2e57600080fd5b612f378461279b565b95602085013595506040909401359392505050565b634e487b7160e01b600052603260045260246000fd5b634e487b7160e01b600052601160045260246000fd5b600060ff821660ff811415612f8f57612f8f612f62565b60010192915050565b6000600019821415612fac57612fac612f62565b5060010190565b600060ff821660ff84168060ff03821115612fd057612fd0612f62565b019392505050565b7f68747470733a2f2f697066732e696f2f697066732f626166796265696278796881527f646e653478337571626c6c6a6b6c3261657478766c64747062346c637473746a6020820152707165323279723737676e726e6c6169612f60781b60408201526000825161305081605185016020870161296a565b64173539b7b760d91b6051939091019283015250605601919050565b60008282101561307e5761307e612f62565b500390565b600181815b808511156130be5781600019048211156130a4576130a4612f62565b808516156130b157918102915b93841c9390800290613088565b509250929050565b6000826130d5575060016105c0565b816130e2575060006105c0565b81600181146130f857600281146131025761311e565b60019150506105c0565b60ff84111561311357613113612f62565b50506001821b6105c0565b5060208310610133831016604e8410600b8410161715613141575081810a6105c0565b61314b8383613083565b806000190482111561315f5761315f612f62565b029392505050565b60006127fc83836130c6565b600081600019048311821515161561318d5761318d612f62565b500290565b600082198211156131a5576131a5612f62565b500190565b6020808252602f908201527f455243313135353a2063616c6c6572206973206e6f7420746f6b656e206f776e60408201526e195c881b9bdc88185c1c1c9bdd9959608a1b606082015260800190565b600060ff821660ff84168082101561321357613213612f62565b90039392505050565b600061ffff80831681851680830382111561323957613239612f62565b01949350505050565b634e487b7160e01b600052601260045260246000fd5b60008261326757613267613242565b500490565b60008261327b5761327b613242565b500690565b60208082526028908201527f455243313135353a2069647320616e6420616d6f756e7473206c656e677468206040820152670dad2e6dac2e8c6d60c31b606082015260800190565b60208082526025908201527f455243313135353a207472616e7366657220746f20746865207a65726f206164604082015264647265737360d81b606082015260800190565b6020808252602a908201527f455243313135353a20696e73756666696369656e742062616c616e636520666f60408201526939103a3930b739b332b960b11b606082015260800190565b60408152600061336a6040830185612d6d565b828103602084015261337c8185612d6d565b95945050505050565b6000835161339781846020880161296a565b83519083019061323981836020880161296a565b60208082526023908201527f455243313135353a206275726e2066726f6d20746865207a65726f206164647260408201526265737360e81b606082015260800190565b60208082526024908201527f455243313135353a206275726e20616d6f756e7420657863656564732062616c604082015263616e636560e01b606082015260800190565b6001600160a01b0386811682528516602082015260a06040820181905260009061345e90830186612d6d565b82810360608401526134708186612d6d565b905082810360808401526134848185612996565b98975050505050505050565b6000602082840312156134a257600080fd5b81516127fc81612803565b600060033d11156134c65760046000803e5060005160e01c5b90565b600060443d10156134d75790565b6040516003193d81016004833e81513d6001600160401b03816024840111818411171561350657505050505090565b828501915081518181111561351e5750505050505090565b843d87010160208285010111156135385750505050505090565b6135476020828601018761284c565b509095945050505050565b60208082526028908201527f455243313135353a204552433131353552656365697665722072656a656374656040820152676420746f6b656e7360c01b606082015260800190565b6001600160a01b03868116825285166020820152604081018490526060810183905260a0608082018190526000906135d490830184612996565b979650505050505050565b600181811c908216806135f357607f821691505b6020821081141561361457634e487b7160e01b600052602260045260246000fd5b5091905056fea264697066735822122054f1a5e8338759e6b54e646209719bb7c00ebc09ac6dea7a0a4968eee675045e64736f6c6343000809003368747470733a2f2f6261667962656962787968646e653478337571626c6c6a6b6c3261657478766c64747062346c637473746a7165323279723737676e726e6c6169612e697066732e6e667473746f726167652e6c696e6b2f7b69647d2e6a736f6e",
  "linkReferences": {},
  "deployedLinkReferences": {}
}